:10190800D290D29175B0FF1213D01217F21211BCF7
:081918001215AE1213D080F28B
:06197300C2B68F80D2B461
:081979007F027EEFDEFEDFFCC1
:011981002243
:0A199D00C2B5121973C2B402197921
:1018CC00CFCDCFCECCCE1205B97C007D0A1205B996
:0418DC00ED2430FFC8
:0A18E000D2B5121973C2B4021979CF
:1018EA00AE07EEFB7A0064017004ED148009EB6424
:0E18FA00024A7009ED243F4480FF12199D221E
:10194B007F3812199D7F0C12199D7F0612199D7FEE
:04195B000102199DCF
:0A19A700AC031218EAAF040218E0C6
:0618A9008B368A378938F6
:1018AF001218EAE4FDAB36AA37A9388D827583008A
:0C18BF00120568FF60061218E00D80E9B9
:0118CB0022FA
:0A182D00EF24FFFDEE34FFFC7F0AFC
:081837008E578F588C598D5A11
:10183F007F017E00E4FBEBC3955AE5596480F87491
:0E184F008098500AAC57AD581205A70B80E8E0
:01185D002268
:041885008A118B1227
:101889001218EAAA13EAFF7E00D3940074809480A8
:0F189900400D12182DAC11AD121218CC1A80E6AA
:0118A800221D
:0416E7008B828A83E5
:1016EB001218EAC3E58364809480400D7F2B121897
:1016FB00E085830D85820E80107F2D1218E0C3E4E8
:10170B009582F50EE49583F50DAA0CEAFF7E00D3C6
:10171B00940074809480400D12182DAC0DAD0E12F8
:05172B0018CC1A80E655
:011730002296
:04169C008A168B1708
:1016A0001218EAAA18EAD39400748094804037EAAA
:1016B00024FFFDE434FFFC7F107E00121837AC16C7
:1016C000AD17CFCDCFCECCCE1205B9EF540FFEC3A0
:1016D000940A74809480EE5004243080022437FFF2
:0616E0001218E01A80BFA1
:0116E60022E1
:0417B5008A1B8B1CE4
:1017B9001218EAAA1DEAFF7E00D39400748094806F
:1017C9004026EF24FFFDEE34FFFC7F02121837ACF0
:1017D9001BAD1CCFCDCFCECCCE1205B9EF54012411
:0817E90030FF1218E01A80CD58
:0117F10022D5
:1017F20020B01930B1167F147E0012195F20B00C90
:1018020030B10975550120B00320B1FA30B019206A
:10181200B1167F147E0012195F30B00C20B1097529
:0B182200550230B00330B1FAAF552280
:100EC500E4F52275B0FFC2B420B0137F14FE1219E9
:100ED5005F30B0FD7F147E0012195F75220620B1C8
:100EE500147F147E0012195F30B1FD7F147E00124D
:100EF500195F75220A20B2147F147E0012195F3023
:100F0500B2FD7F147E0012195F75220E20B3147F87
:100F1500147E0012195F30B3FD7F147E0012195F35
:100F250075221275B0FFC2B520B0147F147E001271
:100F3500195F30B0FD7F147E0012195F75220720FE
:100F4500B1147F147E0012195F30B1FD7F147E004D
:100F550012195F75220B20B2147F147E0012195FDF
:100F650030B2FD7F147E0012195F75220F20B31475
:100F75007F147E0012195F30B3FD7F147E001219B5
:100F85005F75221375B0FFC2B620B0147F147E00C2
:100F950012195F30B0FD7F147E0012195F752208AB
:100FA50020B1147F147E0012195F30B1FD7F147ECD
:100FB5000012195F75220C20B2147F147E001219DD
:100FC5005F30B2FD7F147E0012195F75221020B3C9
:100FD500147F147E0012195F30B3FD7F147E00125A
:100FE500195F75221475B0FFC2B720B0147F147E47
:100FF5000012195F30B0FD7F147E0012195F752253
:101005000920B1147F147E0012195F30B1FD7F14E1
:101015007E0012195F75220D20B2147F147E001216
:10102500195F30B2FD7F147E0012195F7522112001
:10103500B3147F147E0012195F30B3FD7F147E0058
:0810450012195F752215AF229C
:01104D002280
:1011BC00120EC5E4F556E55564016003021263C2D4
:1011CC0091D290EF24FAB40F0040030212609011F8
:1011DC00E875F003A4C58325F0C5837302121502CC
:1011EC00121B02122102126002122702122D02128D
:1011FC003302126002123902123F02124502125AD5
:10120C0002124B0212510212547556010212F2755F
:10121C0056020212F27556030212F27556040212AD
:10122C00F27556050212F27556060212F275560741
:10123C000212F27556080212F27556090212F27574
:10124C0056280212F20212EF7556290212F2755646
:10125C003D0212F20212EFE555640260030212F233
:10126C00C290D291EF24FAB40F0050779012867589
:10127C00F003A4C58325F0C583730212B30212C711
:10128C000212DB0212EF0212B80212CC0212E002BE
:10129C0012EF0212BD0212D10212E50212EF02127B
:1012AC00C20212D60212EA75562B803A75562D8060
:1012BC003575562A803075562F802B7556738026BF
:1012CC007556638021755674801C75566E80177523
:1012DC0056758012755664800D755671800875565A
:0812EC006B8003E4F556AF56D8
:0112F40022D7
:0F198200EFC394304007EFD39439500122C322B2
:09177700AF2E121780AE07AF2D52
:10178000EF64736008EF64636003BF74037F042237
:10179000BF6E037F0322EF642A6003BF2F037F0223
:1017A00022EF642B6003BF2D037F0122BF28037F3C
:0517B00000227FFF2272
:1012F5001522E52225E02420F582E43400F583E07B
:10130500F529A3E0F52A1522E52225E02420F5821A
:10131500E43400F583E0F52BA3E0F52C15237440A8
:101325002523F582E43400F583E0F52FFBAF2CADE2
:051335002AAC29AE2BDB
:10133A008E338F348D828C83EB24D6602724FD6014
:10134A001724FE602A24C1603C24437075E53425C5
:10135A0082FFE5333583FE22C3E5349582FFE53308
:10136A009583FE22AE33AF34AD82AC830205A7E586
:10137A00824583600BAE33AF34AD82AC8302060E76
:05138A007E007F00223F
:10138F00E4F535F536F537753801F535F536C3E53E
:10139F00369582E5836480F8E5356480985019AE00
:1013AF0037AF38AC33AD341205A78E378F380536CB
:0D13BF00E53670DA053580D6AE37AF38223E
:0413CC00E4FEFF221A
:101731008E338F34ED249D601424EF601D047032CC
:10174100AC33AD34EC12010E1210AC8018AC33ADD9
:1017510034EC12010E121096800BAC33AD34EC1246
:10176100010E1210DEE4FBFA797A784412000302CA
:061771000147E4FEFF2227
:06147B008B338A34893531
:10148100AB36AA37A938E4F5F01206BC75390075F8
:101491003A01AB33AA34A93512071912054FB42DFD
:1014A1000874FFF539F53A804AAB33AA34A93512ED
:1014B100071912054FFF604D1219825048AB33AA2C
:1014C10034A93512071912054F24D0FDE434FFFC6D
:1014D100C004C005AB36AA37A938120644FFAEF0E6
:1014E1007C007D0A1205A7D0E02FFFD0E03E8FF0EF
:1014F1001206BCAB33AA34A935900001E475F001A2
:1015010012066F80A4AB36AA37A938120644FFAE83
:10151100F0AC39AD3A1205A7EE8FF01206BC7F018F
:0115210022A7
:100C3700E4F522F523752401752500752600AB24FC
:100C4700AA25A92612054FFF7003020E75121982F5
:100C57004036AB24AA25A92612054F642D705904E6
:100C67009000006B7008E965827003EA658360187D
:100C7700AB24AA25A92690FFFF120568FF64286008
:100C870007121780EFF46030753600753700753836
:100C9700277B007A00792412147BEF7002C322AFFE
:100CA700220522EF25E02420F582E43400F583E5D0
:100CB70027F0A3E528F08086AB24AA25A9261205EC
:100CC7004FFFB42812AE23052374402EF582E43477
:100CD70000F583EF020E64EF64296003020D9BD3D6
:100CE700E5239400748094804038743F2523F5826F
:100CF700E43400F583E064286028C3E52294027495
:100D07008094805002C3221212F5AD220522ED25F0
:100D1700E02420F582E43400F583EEF0A3EFF0023F
:100D27000CE6D3E5239400748094805003020C45AD
:100D3700743F2523F582E43400F583E0FF64736094
:0E0D47000DEF64636008EF64746003020C45F6
:100D55001522E52225E02420F582E43400F583E020
:100D6500F530A3E0F531152374402523F582E434ED
:100D750000F583E0F532FDAF31AE30121731AD220B
:100D85000522ED25E02420F582E43400F583EEF01C
:030D9500A3EFF0D9
:100D9800020C45AB24AA25A92612054FFF1217807D
:100DA800EFF47003020E73AB24AA25A92612054F8F
:100DB800F52DD3E5239400748094805003020E48E7
:100DC800743F2523F582E43400F583E0F52E64288A
:100DD800606E121777EFD39E5066121777EFB5063D
:100DE80006E52D646E6059C3E522940274809480F0
:100DF8005002C3221522E52225E02420F582E4349E
:100E080000F583E0F529A3E0F52A1522E52225E07F
:100E18002420F582E43400F583E0F52BA3E0F52CDB
:100E2800AB2EFF121334AD220522ED25E02420F568
:100E380082E43400F583EEF0A3EFF01523020DBA37
:100E4800C3E523941074809480400122AF230523C6
:100E580074402FF582E43400F583E52DF074012504
:100E680026F526E43525F525020C45C322D3E523CE
:100E78009400748094804039743F2523F582E434CB
:100E880000F583E0B42802C322C3E52294027480EB
:100E980094805002C3221212F5AD220522ED25E0FE
:100EA8002420F582E43400F583EEF0A3EFF0020E7F
:0C0EB80075900020E0F553A3E0F554D342
:010EC400220B
:1015AE00E556B46B197E007F207D007B017A0079B1
:1015BE000012075FE4F552F553F554F55622E55641
:1015CE00643D7028D3E5529400748094804052128A
:1015DE000C37404D7E007F207D007B017A00790024
:1015EE0012075FE4F552F553F5548035E556603138
:1015FE00E5522401FFE433FEC3EF9420EE648094A1
:10160E0080501EAF52055274002FF582E43400F55F
:10161E0083E556F074002552F582E43400F583E438
:05162E00F0E4F5562276
:10195F00EF4E600F7D0B7CBEDCFEDDFCEF1F70F0E9
:03196F001E80EDEA
:011972002252
:10163300015600015500602000000000000000007A
:101643000000000000000000000000000000000097
:1016530000000000000000000000015200602000B4
:101663002000000000000000000000000000000057
:101673000000000000000000000000000000000067
:1016830000500040000000000000000000000000C7
:081693000000000002530000FA
:101920003D3A2B25642E25303364003D3A2D256445
:061930002E253033640097
:1013D000AF54AE531219918E338F347B017A00795A
:1013E000007D017F011218A97B017A007900121992
:0A13F00036C3EF9410EE9400502570
:1013FA007B017A0079001219368F35C3E5359410CE
:10140A0074809480500FE53504FD7B207F0112190A
:05141A00A7053580E686
:10141F00C3E5536480948040167539FF753A19758A
:10142F003B20AE53AF547C037DE812060E8014753B
:10143F0039FF753A19753B2BAE33AF347C037DE81A
:10144F001205B98E3C8F3DAE33AF347C037DE8126D
:10145F0005B98C3E8D3F7B007A0079221208247BE0
:0C146F00007A0079227D017F020218A99A
:10000300EC4D6011E8497017ED33EC3304600DE4F7
:10001300FCFFFEFD22E933E8330470F80201B3125A
:10002300017E58046009E4CC24815006285009025B
:1000330001BD2840030201BAC0E0EB4A7044B98015
:1000430006D0E0FB0201A9EF4E701CBD8008EBFF58
:10005300EAFEE9FD80EBE98DF0A4FEE5F00200EC99
:10006300E9CDF9EAFEEBFFEF89F0A4FCE5F0CE89D8
:10007300F0A42EFFE435F0CD89F0A42DFEE435F095
:100083008067EF4E7005BD80D780C3EF8BF0A4ACC3
:10009300F0EE8BF0A42CFCE435F0F8EF8AF0A42CFE
:1000A300E5F038FCE433CB8DF0A42CFCE5F03BF811
:1000B300EE8AF0A42CFCE5F038F8E433CF89F0A401
:1000C3002CFCE5F038CF3400CE89F0A42FFFE5F007
:1000D3003EFEE433C98DF0A42EFEE5F039CD8AF05F
:1000E300A42FFFE5F03EFEE43DFD33D0E0FB5007D7
:1000F3000BBB000F0201BDEC2CFCEF33FFEE33FE14
:06010300ED33FD02019541
:1001090075F020800E75F010800575F0087D007E71
:10011900007F003392D530D5031206DBEC33401053
:10012900EF33FFEE33FEED33FDEC33FCD5F0ED227A
:0E013900E5F0247EA2D513CC92E7CDCEFF22B6
:10014700EDD2E7CD33EC3392D524814006E4FFFEB0
:10015700FDFC22FCE4CFCECDCC24E0501174FF800F
:10016700EDC3CC13CCCD13CDCE13CECF13CF0470AC
:07017700F030D5DE0206DBCB
:1007C800E54D2439F8E6054D2278363007027839A8
:1007D800E475F00112070902054F2000EB7F2ED2C5
:1007E800008018EF540F2490D43440D4FF30040B09
:1007F800EF24BFB41A0050032461FFE54E600215D0
:100808004E0551E5517002055030070D7836E475F4
:10081800F001120709EF02059502185E7403D2076A
:100828008003E4C207F54D8B368A378938E4F54EE4
:10083800F550F551E54E60077F2012080380F575E5
:100848004FFFC201C200C202C203C205C206C208EB
:100858001207D1FF700D3007057F00120814AF5141
:10086800AE5022B4255FC2D5C2041207D1FF24D0EE
:10087800B40A00501A75F00A784E30D50508B6FF4C
:100888000106C6A426F620D5047002D20380D92416
:10089800CFB41A00EF5004C2E5D204020B01D20112
:1008A80080C6D20080C0D20280BCD2D580BAD20520
:1008B80080B47F201208032002077401B54E00405F
:1008C800F11207C8FF12080302083CD208D20680BA
:1008D800951207C8FB1207C8FA1207C8F94A4B70E5
:1008E8000679F87A0B7BFF20022EE54E602A7E00FF
:1008F8008E8275830012056860060EEE654F70F0F3
:10090800C2D5EBC0E0EAC0E0E9C0E0EE120B61D06E
:10091800E0F9D0E0FAD0E0FB12054FFF60AAEBC087
:10092800E0EAC0E0E9C0E0120803D0E02401F9D011
:10093800E03400FAD0E0FBE54F0460DCD54FD98005
:1009480087D20280A2120B4460F7E54F70010412AF
:100958000360A94F600DE54F600914F54F120BEBCA
:10096800EF60F3EA30E702F404C3995077EAF4251C
:100978004F0430E701E404F54F800D120B4460C1C9
:10098800EA054F254F120360EA784CF630E701E498
:10099800254F04D54F0420050114120B61E4C0E073
:1009A800120BEB784CE6601320E70714F61207EBFE
:1009B800802204F6D0E014C0E07F001207EBE54F78
:1009C80060071207E2154F800B3005031207E2D0CB
:1009D800E002083CD0E00480C5120B4460A0E54F5B
:1009E80004120360784CEAF6E54F20050260010422
:0509F8002404120B6154
:1009FD0074FF04C0E0120BEB1207EBE54F2005026C
:100A0D0060031207E2D0E0B54FE87F451207F57895
:100A1D004CE67F2B30E7047F2DF404C0E012080371
:100A2D00D0E075F00A84C0F01207ECD0E01207ECAC
:100A3D0002083C791080027908C206C2088008D2EB
:100A4D00D5790A8004790AC2D5E54F047002F54FB5
:100A5D00E4FAFDFEFF1207C8FC7B08200113120704
:100A6D00C8FD7B1030000A1207C8FE1207C8FF7BB5
:100A7D0020EC3382D592D55013C3E43000069FFF8E
:100A8D00E49EFEE42001039DFDE49CFCE4CBF8C252
:100A9D0001EC700CCFCECDCCE824F8F870F38017B4
:100AAD00C3EF33FFEE33FEED33FDEC33FCEB33FBE5
:100ABD00994002FB0FD8E9EB300105F8D0E0C448AE
:100ACD00B201C0E00AEC4D4E4F78207B0070C2EAB7
:100ADD00B54F0040BCC0E0120B63D0F0D0E0200158
:100AED0004C4C0E0C4B201C0F01207ECD0F0D5F0E0
:100AFD00EB02083C12073908D9530A405808AA4C92
:100B0D0008A6420A444F0A4C440A4C4908BF430AFE
:100B1D00525509834609E145094D470C185008AE59
:100B2D002D08B22E08D52B08B62308D3200C012A88
:100B3D00086E48000008CDE54FB4FF03754F06124F
:100B4D0007C8FC1207C8FD1207C8FE1207C8FF78B8
:100B5D004502038F790AA2D5200314300509B91077
:100B6D00020404B9080104A2D52006025001042094
:100B7D0002689202B54E005034C0E07F2030031958
:100B8D007F30A20272067205500F120BBAC202C25A
:100B9D0006C205C2087F30800F300503E9C0E012A0
:100BAD000803300503D0E0F9D0E0B54ECC30051781
:100BBD007F30B9100C1208037F583004077F7880FE
:100BCD0003B908031208033002057F2D0208037FC5
:100BDD00202008F87F2B2006F322920280CF7F0081
:100BED00B4070050052445F8E6FF22286E756C6C9D
:100BFD002900D2011207C83001F8C201784E30D554
:100C0D000108F602086E2D504349581207C82403F7
:100C1D00B405004001E4900C13931207F4743A12DA
:0A0C2D0007F4D203754E04020A40DA
:10104E003A70FA83BCAAE9E43E81E0F8BF9DE9E676
:10105E003F80000039283C1ABB9969663DA335E3F1
:10106E00BF255DE73FC90FDB418DDBCCC44936EEB2
:10107E0045C9913FC5B0F83D3F800000C317F53418
:10108E00452FFA73C60AFDDD12113D04A2E192004E
:10109E001420E01590104E74041204928026121142
:1010AE003D30E102B20020E0EB8C358D368E378F6D
:1010BE00389010627404120492A835A936AA37AB80
:1010CE0038120003ED4C6007300004EC6480FC2203
:1010DE0012113DC0E08C358D368E378F38901086CC
:1010EE007403120492A835A936AA37AB381200033E
:1010FE00ECC535FCEDC536FDEEC537FEEFC538FF48
:10110E009010767403120492D082A835A936AA37AD
:10111E00AB38E58230E0071202C3B20080A6EFCBF7
:10112E00FFEECAFEEDC9FDECC8FC1202C38095EDC0
:10113E0033EC547FCC33920024605007D0E0D0E0E3
:10114E000201B37B837AF97922783E120003EDF91E
:10115E0033ECF83324815011EFFBEEFA12014712F3
:10116E000109ECB2E7FC1201CFED33EC33602F2412
:10117E0003F8C313FCED92E7FDE82481E4501FEC65
:10118E00F8EDF9EEFAEFFB120147EF04C2E0FCF5C1
:10119E0082120113ECB2E7FC1201CFE58203FAEDE5
:0E11AE0033EC3360071413FCED92E7FDEA22E8
:10017E00E9D2E7C933E833F892D5EDD2E7CD33ECC7
:07018E0033FC5002B2D52240
:10019500EC30E7100FBF000C0EBE00080DBD0004CB
:1001A5000BEB6014A2D5EB13FCED92E7FD2274FF77
:1001B500FCFDFEFF22E480F8A2D574FF13FC7D80D0
:0301C500E480EFE4
:1001C8000201B3E86480F8E933E83360110460F0B1
:1001D800ED33EC337009E8FCE9FDEAFEEBFF22049D
:1001E80060DED3EB9FEA9EE99DE8C2E78CF0C2F798
:1001F80095F0400CE8CCF8E9CDF9EACEFAEBCFFB64
:1002080012017E85D0F05804700320D5B3E804703D
:10021800075002B2D50201BD92D5EC0460F7E4CCD8
:10022800C0E0C398F8603B94186008400DD0E0FB2C
:10023800020195E4FBFAC9FC8028E830E406E4C929
:10024800FBE4CAFCE830E305E4C9CACBFCE8540780
:100258006010F8C3E913F9EA13FAEB13FBEC13FC8B
:10026800D8F130F52FC3E49CFCEF9BFFEE9AFEED2E
:1002780099FDD0E0FBEF4E4D4C701222DB030201DA
:10028800BAEC2CFCEF33FFEE33FEED33FDED30E737
:10029800EB020195EF2BFFEE3AFEED39FDD0E0FBC6
:1002A80050130BBB00030201BDED13FDEE13FEEF6F
:0802B80013FFEC13FC02019599
:1002C0000201BDEC5D046005E8590470030201B34E
:1002D00012017E580460F6EC4860F2EC7004FDFEFA
:1002E000FF22C860DB2481C85009C3986002500611
:1002F0000201BA9850CAF582E9294B4A7005AB82CF
:100300000201A975F0007C1A7880C3EF9BEE9AED8C
:1003100099400DC3EF9BFFEE9AFEED99FDE842F088
:10032000DC23ACF0D0E0FFD0E0FED0E0FDAB8220DB
:10033000E7101BEB60BAEC2CFCEF33FFEE33FEED65
:1003400033FD020195E803F830E705C0F075F000D1
:10035000EF2FFFEE33FEED33FD40B830E7C280AA49
:10036000F920E72824F950037907E4F42402FB1864
:10037000DBFDE624FB5014E9600DE4F618E604F614
:0F038000B40A08E4F6D9F57401F60A22C2D522B0
:10038F00ED33EC3392D5FA602AB4FF33EDC2E77B3D
:10039F00FF60067A0379B4E4227A0379BD20D5048D
:1003AF007A0379B8224E614E002B494E46002D49F3
:1003BF004E4600E47A08F608DAFC7B00740722E860
:1003CF00C0E0ECC0E0EDC0E0EEC0E0EFC0E0EA75E9
:1003DF00F010A4CAABF075F04DA42BFBE435F0FC84
:1003EF00EA2410FAEB34C5FBEC34D9FCEDC2E7FF7D
:1003FF0075F056A4F42411C5F0F434C58FF0A42A77
:10040F00E5F03BE43CF620E71412050FD0E0FFD0F7
:10041F00E0FED0E0FDD0E0FC1202C38014F4041221
:10042F00050FD0E0FFD0E0FED0E0FDD0E0FC1200E1
:10043F0003D0E0F8E6FAEDD2E7CD33EC332482FBBC
:10044F00E4C3CF33CFCE33CECD33CD33DBF37B0706
:10045F0075F00A846004F6081B0AE5F0F6088FF0C1
:10046F00740AA4FFACF08EF0740AA42CFEACF0500A
:10047F00010C8DF0740AA42CFDE435F0F608DBDED8
:03048F00740722CD
:10049200C0E0EFFBEEFAEDF9ECF8120003D0E0F564
:1004A200F0EFFBEEFAEDF9ECF81206E9A3A3A3A331
:1004B200E8C0E0E9C0E0EAC0E0EBC0E0C0F0120052
:1004C200031206F9A3A3A3A31201CFD0F0D0E0FB3D
:0D04D200D0E0FAD0E0F9D0E0F8D5F0D42267
:1004DF003F8000004120000042C80000447A000025
:1004EF00461C400047C35000497424004B189680A7
:1004FF004CBEBC205A0E1BCA6753C21C749DC5AE9E
:10050F00FB60065407601C232312053DEB54386033
:10051F0009120529120538120003ECF8EDF9EEFA6D
:10052F00EFCB22EB12053880F1543803241C9004D2
:10053F00DFFE93FC0EEE93FD0EEE930ECE93FF2295
:03000000021522C4
:0C152200787FE4F6D8FD75815A02156947
:10054F00BB010689828A83E0225002E722BBFE02AA
:09055F00E32289828A83E49322DD
:10056800BB010CE58229F582E5833AF583E0225048
:1005780006E92582F8E622BBFE06E92582F8E22292
:0D058800E58229F582E5833AF583E49322AC
:10059500BB010689828A83F0225002F722BBFE0145
:0205A500F3223F
:1005A700EF8DF0A4A8F0CF8CF0A428CE8DF0A42E68
:0205B700FE2222
:1005B900BC000BBE0029EF8DF084FFADF022E4CC26
:1005C900F875F008EF2FFFEE33FEEC33FCEE9DECEF
:1005D900984005FCEE9DFE0FD5F0E9E4CEFD22ED35
:1005E900F8F5F0EE8420D21CFEADF075F008EF2F7F
:1005F900FFED33FD4007985006D5F0F222C398FD70
:050609000FD5F0EA220C
:10060E00C2D5EC30E709B2D5E4C39DFDE49CFCEE07
:10061E0030E715B2D5E4C39FFFE49EFE1205B9C3C1
:10062E00E49DFDE49CFC80031205B930D507C3E4BC
:06063E009FFFE49EFE2276
:10064400BB010A89828A83E0F5F0A3E02250068781
:10065400F009E71922BBFE07E3F5F009E319228943
:0B066400828A83E493F5F07401932276
:10066F00BB010DC58229C582C5833AC58302078B9D
:10067F005011C58229F808E5F026F618F5F0E58245
:10068F0036F622BBFE11C58229F808E225F0F5F0F7
:10069F00F218E23582F222F8E58229F582E5832A03
:0D06AF00F58374019325F0F5F0E4933822F3
:1006BC00BB010A89828A83F0E5F0A3F0225006F789
:0F06CC0009A7F01922BBFE06F3E5F009F3192286
:0E06DB00C3E49FFFE49EFEE49DFDE49CFC2230
:1006E900E493FC740193FD740293FE740393FF2257
:1006F900E493F8740193F9740293FA740393FB2257
:10070900FAE6FB0808E6F925F0F618E6CA3AF622F1
:10071900BB010789828A830207AA5005E9F8020703
:10072900A1BBFE05E9F80207B389828A830207BCE7
:10073900D083D082F8E4937012740193700DA3A34F
:1007490093F8740193F5828883E473740293686063
:06075900EFA3A3A380DF63
:10185E00EFB40A07740D121869740A309811A8991A
:10186E00B8130CC2983098FDA899C298B811F630EA
:07187E0099FDC299F59922C2
:0C199100EE30E707C3E49FFFE49EFE2257
:10193600E4FFFE12054F600C0FEF70010E09E9700F
:05194600F20A80EF220F
:10075F00EF4E6012EF60010EEDBB010B89828A83B1
:10076F00F0A3DFFCDEFA2289F05007F709DFFCA9BE
:0C077F00F022BBFEFCF309DFFCA9F02215
:10152E00021908E493A3F8E493A34003F68001F2B2
:10153E0008DFF48029E493A3F85407240CC8C333BE
:10154E00C4540F4420C8834004F456800146F6DF8D
:10155E00E4800B0102040810204080901633E47ED4
:10156E00019360BCA3FF543F30E509541FFEE49382
:10157E00A360010ECF54C025E060A840B8E493A349
:10158E00FAE493A3F8E493A3C8C582C8CAC583CA74
:10159E00F0A3C8C582C8CAC583CADFE9DEE780BE2C
:01169B00004E
:10078B00C5F0F8A3E028F0C5F0F8E58215827002F9
:06079B001583E038F02296
:0907A100E6FB08E6FA08E6F9227D
:0907AA00E0FBA3E0FAA3E0F92250
:0907B300E2FB08E2FA08E2F92277
:0C07BC00E493FB740193FA740293F92299
:00000001FF
