:10022100E4FDFCC3ED9FEC9E5015E4FBFA0BBB0013
:10023100010AEB64704A70F50DBD00010C80E422E7
:0602A600C2B68F80D2B445
:0902AC007F027EEFDEFEDFFC2282
:0A02C100C2B51202A6C2B40202ACDC
:10024100CFCDCFCECCCE1200427C007D0A1200422F
:04025100ED2430FF69
:0A025500D2B51202A6C2B40202AC38
:10027C00AE07BE0104ED148006BE0209ED243F4416
:06028C0080FF1202C122F6
:100292007F381202C17F0C1202C17F061202C17F97
:0402A200010202C192
:0A02CB00AC0312027CAF04020255DE
:1001FE008B088A09890A12027CE4FDAB08AA09A9B8
:10020E000A8D82758300120003FF60061202550DDF
:03021E0080E92252
:0C019B007F0AEA24FFFDE434FFFC7E0034
:1001A7008E0D8F0E8C0F8D107F017E00E4FBEBC34D
:1001B7009510E50F6480F8748098500AAC0DAD0E69
:0701C7001200300B80E8225A
:10025F008A0A8B0B12027CAA0CEAD39400400D126F
:0D026F00019BAC0AAD0B1202411A80ED227A
:1000F00012027CC3EA64809480400B7F2B1202556D
:100100008A168B17800E7F2D120255C3E49BF517BC
:10011000E49AF516AA15EAD39400400D12019BAC9F
:0A01200016AD171202411A80ED22FD
:10012A008A1A8B1B12027CAA1CEAD3940040297FEC
:10013A001012019DAC1AAD1BCFCDCFCECCCE120082
:10014A0042EF540FFEC3940AEE5004243080022476
:09015A0037FF1202551A80D12270
:100163008A1F8B2012027CAA21EAD394004028EA3A
:1001730024FFFDE434FFFC7F027E001201A7AC1FC5
:10018300AD20CFCDCFCECCCE120042EF54012430E0
:08019300FF1202551A80D2226E
:0402D50041444A0056
:1001CE001202927BFF7A0279D57D017F011201FE28
:1001DE007FAC1200978E228F23750C04AB23AA22BC
:1001EE007D017F0212025F7F0A7E0012022180E0F3
:10009700AD07E4F508F509C2A1C2B7FB7E0074807D
:1000A700A803088006CEA2E713CE13D8F8FFEDF514
:1000B70082EF558224FF92A0D2A1C2A10BBB08DC1C
:1000C700E4FBD2A1C2A130A5147E80E4A803088076
:1000D70005CEC313CE13D8F94209EE42080BBB1065
:0900E700E1D2B7E508FF7E00221A
:030000000202B544
:0C02B500787FE4F6D8FD7581230201CEAD
:10000300BB010CE58229F582E5833AF583E02250B2
:1000130006E92582F8E622BBFE06E92582F8E222FC
:0D002300E58229F582E5833AF583E4932216
:10003000EF8DF0A4A8F0CF8CF0A428CE8DF0A42EE4
:02004000FE229E
:10004200BC000BBE0029EF8DF084FFADF022E4CCA2
:10005200F875F008EF2FFFEE33FEEC33FCEE9DEC6B
:10006200984005FCEE9DFE0FD5F0E9E4CEFD22EDB1
:10007200F8F5F0EE8420D21CFEADF075F008EF2FFB
:10008200FFED33FD4007985006D5F0F222C398FDEC
:050092000FD5F0EA2289
:00000001FF
