:10099400EF1FAC0670011E4C600A7D027CEFDCFE8A
:0509A400DDFC80EC22E7
:0909E1000711130B100C3B370643
:05000300C2B5C2B622E7
:0506F0002DFDEE3CFCB5
:1006F5008C088D09AB07D2B5E4FD7E007401A80511
:10070500088005C333CE33CED8F9FFEBF582EF551C
:100715008224FF92B4D2B6C2B60DBD08DDE4FD7EDB
:10072500007401A805088005C333CE33CED8F9FF80
:10073500E5085EFEE5095F4E24FF92B4D2B6C2B667
:070745000DBD08DBC2B52267
:1007A400AD07E4F9430501D2B5FB7E007401A8034B
:1007B400088005C333CE33CED8F9FFEDF582EF556B
:1007C4008224FF92B4C2B6D2B60BBB08DDE4FBD2DE
:1007D400B6C2B630B40DA8037401088002C333D87E
:0E07E400FC42010BBB08E8C2B5C2B4AF012253
:1002DD00E4FDFC7F8E1206F5E51175F00A12045748
:1002ED00FF3395E0FEEFC4F8540FC868FFEEC45419
:1002FD00F048FEE51175F00A120457ADF0ED339597
:10030D00E0FCEF7F8C1206F0E51275F00A1204572F
:10031D00FF3395E0FEEFC4F8540FC868FFEEC454E8
:10032D00F048FEE51275F00A120457ADF0ED339565
:10033D00E0FCEF7F881206F0E51375F00A12045702
:10034D00FF3395E0FEEFC4F8540FC868FFEEC454B8
:10035D00F048FEE51375F00A120457ADF0ED339534
:10036D00E0FCEF2DFDEE3CFC7F861206F5E51475E5
:10037D00F00A120457FF3395E0FEEFC4F8540FC88E
:10038D0068FFEEC454F048FEE51475F00A120457E8
:10039D00ADF0ED3395E0FCEF2DFDEE3CFC7F8412CE
:1003AD0006F5E51575F00A120457FF3395E0FEEFDB
:1003BD00C4F8540FC868FFEEC454F048FEE5157537
:1003CD00F00A120457ADF0ED3395E0FCEF2DFDEE84
:1003DD003CFC7F821206F5E51675F00A120457FFF4
:1003ED003395E0FEEFC4F8540FC868FFEEC454F027
:1003FD0048FEE51675F00A120457ADF0ED3395E0A1
:10040D00FCEF2DFDEE3CFC7F801206F5E51775F037
:10041D000A120457FF3395E0FEEFC4F8540FC86875
:10042D00FFEEC454F048FEE51775F00A120457ADFF
:10043D00F0ED3395E0FCEF2DFDEE3CFC7F8A1206CE
:0A044D00F57D807C007F8E0206F52D
:10050D007F8C1207A4EFC4540F75F00AA4FEEF54AC
:10051D000F2EF5117F881207A4EFC4540F75F00A42
:10052D00A4FEEF540F2EF5127F861207A4EFC454CC
:10053D000F75F00AA4FEEF540F2EF5137F841207EA
:10054D00A4EFC4540F75F00AA4FEEF540F2EF5144A
:10055D007F821207A4EFC4540F75F00AA4FEEF5466
:10056D000F2EF5157F801207A4EFC4540F75F00AF6
:10057D00A4FEEF540F2EF5167F8A1207A4EFC45474
:0D058D000F75F00AA4FEEF540F2EF5172293
:10068F00E4F50820B1137F14FE12099430B1FD7FF9
:10069F00147E0012099475080120B0147F147E0097
:1006AF0012099430B0FD7F147E0012099475080270
:1006BF0020B2147F147E0012099430B2FD7F147E95
:1006CF000012099475080320B3147F147E001209D9
:1006DF009430B3FD7F147E00120994750804AF089F
:0106EF0022E8
:0609D200C2B68F80D2B412
:0909D8007F027EEFDEFEDFFC224F
:0A09EB00C2B51209D2C2B40209D845
:10092C00CFCDCFCECCCE1204B87C007D0A1204B849
:04093C00ED2430FF77
:0A094000D2B51209D2C2B40209D8E0
:10097E00AE07BE0104ED148006BE0209ED243F440D
:06098E0080FF1209EB22BC
:1009BE007F381209EB7F0C1209EB7F061209EB7FD1
:0409CE00010209EB2E
:0A09F500AC0312097EAF04020940B2
:100909008B088A09890A12097EE4FDAB08AA09A99C
:100919000A8D82758300120479FF60061209400D61
:0309290080E92240
:0C08D6007F0AEA24FFFDE434FFFC7E00F2
:1008E2008E0D8F0E8C0F8D107F017E00E4FBEBC30B
:1008F2009510E50F6480F8748098500AAC0DAD0E27
:070902001204A60B80E8229D
:10094A008A0A8B0B12097EAA0CEAD39400400D1274
:0D095A0008D6AC0AAD0B12092C1A80ED2254
:1007F20012097EC3EA64809480400B7F2B12094069
:100802008A1D8B1E800E7F2D120940C3E49BF51EAC
:10081200E49AF51DAA1CEAD39400400D1208D6AC46
:0A0822001DAD1E12092C1A80ED22F4
:10082C008A278B2812097EAA29EAD3940040297FB3
:10083C00101208D8AC27AD28CFCDCFCECCCE120419
:10084C00B8EF540FFEC3940AEE50042430800224F7
:09085C0037FF1209401A80D12275
:10089E008A2C8B2D12097EAA2EEAD394004028EAC8
:1008AE0024FFFDE434FFFC7F027E001208E2AC2C34
:1008BE00AD2DCFCDCFCECCCE1204B8EF5401243017
:0808CE00FF1209401A80D2223A
:1009A90020200020202D20202D20200020203A204A
:0509B900203A2020009F
:1006260012050DE511FB3395E0FA750C027D017F8D
:100636000112094AE512FB3395E0FA750C027D04B6
:100646007F0112094AE513FB3395E0FA750C027D2A
:10065600077F0112094AE514FB3395E0FA750C028F
:100666007D017F0212094AE515FB3395E0FA750C08
:10067600027D047F0212094AE516FB3395E0FA75FE
:090686000C027D077F0202094A03
:10000E00E524B4020B0521E52175F0068485F02167
:10001E00E524640360030200E874112521F806D379
:10002E00E511648094E34003E4F511D3E512648096
:10003E00948C4003751201E51264016023E512648D
:10004E0003601DE51264056017E51264076011E593
:10005E00126408600BE512640A6005E512B40C0B1D
:10006E00D3E5136480949F404D8048E5126404608C
:10007E0011E5126406600BE51264096005E512B421
:10008E000B0BD3E5136480949E402B8026E512B4AF
:10009E000224E51175F004120457AFF0EF700BD384
:1000AE00E5136480949D400E8009D3E5136480941B
:1000BE009C4003751301D3E514648094974003E4C8
:1000CE00F514D3E515648094BB4003E4F515D3E530
:1000DE0016648094BB4003E4F516E52464046003C3
:1000EE000201E374112521F816C3E5116480948092
:1000FE005003751163C3E512648094815003751229
:10010E000CE51264016023E5126403601DE51264C0
:10011E00056017E51264076011E5126408600BE5CF
:10012E0012640A6005E512B40C17C3E513648094DB
:10013E0081500375131FD3E5136480949F40728022
:10014E006DE51264046011E5126406600BE512643D
:10015E00096005E512B40B17C3E513648094815052
:10016E000375131ED3E5136480949E4044803FE5CF
:10017E00126402703CE51175F004120457AFF0EFF3
:10018E007017C3E51364809481500375131DD3E576
:10019E00136480949D401A8015C3E5136480948186
:1001AE00500375131CD3E5136480949C40037513A0
:1001BE0001C3E514648094805003751417C3E515CC
:1001CE0064809480500375153BC3E516648094805B
:1001DE00500375163BE5217014E523B4010F7BFF28
:1001EE007A0979A97D017F011209098011E511FBB8
:1001FE003395E0FA750C027D017F0112094AE52163
:10020E00B40114E523B4010F7BFF7A0979A97D04AB
:10021E007F011209098011E512FB3395E0FA750C86
:10022E00027D047F0112094AE521B40214E523B4CC
:10023E00010F7BFF7A0979A97D077F0112090980D9
:10024E0011E513FB3395E0FA750C027D077F011261
:10025E00094AE521B40314E523B4010F7BFF7A09A3
:10026E0079A97D017F021209098011E514FB3395EE
:10027E00E0FA750C027D017F0212094AE521B404F1
:10028E0014E523B4010F7BFF7A0979A97D047F025F
:10029E001209098011E515FB3395E0FA750C027D04
:1002AE00047F0212094AE521B40512E523B4010DBB
:1002BE007BFF7A0979A97D077F02020909E516FB02
:0F02CE003395E0FA750C027D077F0212094A2270
:10074C001209BE1200031209677BFF7A0979AC7D8E
:10075C00017F011209097BFF7A0979B57D017F02BE
:10076C001209091202DD12068F8F24E524B401163A
:10077C00E5227007752201F521800BE522B40106F4
:10078C00E4F5221202DDE5221460080470D812068A
:08079C002680D312000E80CE6E
:03000B0002086583
:10086500C0E0C0D075D000C007758A18758CFC052E
:1008750020E5207002051FC394F4E51F9401401282
:10088500751F00752000E52370047F0180027F003D
:090895008F23D007D0D0D0E0324F
:100967005389F0438901758A18758CFCC28DD28C26
:07097700D2A9D2AFC2B922E0
:0300000002059A5C
:0C059A00787FE4F6D8FD75812E0205E1A3
:10045700C2D530F707B2D563F0FF05F030E70CB22D
:10046700D5F4048463F0FF05F080018430D502F4ED
:0204770004225D
:10047900BB010CE58229F582E5833AF583E0225038
:1004890006E92582F8E622BBFE06E92582F8E22282
:0D049900E58229F582E5833AF583E493229C
:1004A600EF8DF0A4A8F0CF8CF0A428CE8DF0A42E6A
:0204B600FE2224
:1004B800BC000BBE0029EF8DF084FFADF022E4CC28
:1004C800F875F008EF2FFFEE33FEEC33FCEE9DECF1
:1004D800984005FCEE9DFE0FD5F0E9E4CEFD22ED37
:1004E800F8F5F0EE8420D21CFEADF075F008EF2F81
:1004F800FFED33FD4007985006D5F0F222C398FD72
:050508000FD5F0EA220E
:1005A60002074CE493A3F8E493A34003F68001F218
:1005B60008DFF48029E493A3F85407240CC8C33356
:1005C600C4540F4420C8834004F456800146F6DF25
:1005D600E4800B01020408102040809009E1E47ECB
:1005E600019360BCA3FF543F30E509541FFEE4931A
:1005F600A360010ECF54C025E060A840B8E493A3E1
:10060600FAE493A3F8E493A3C8C582C8CAC583CA0B
:10061600F0A3C8C582C8CAC583CADFE9DEE780BEC3
:0109EA00000C
:00000001FF
