:100284008F088D091203837FA012023812034DAF29
:100294000812023812034DAF0912023812034D023C
:0202A400038CC9
:100208008F081203837FA012023812034DAF081221
:10021800023812034D1203837FA112023812034DD4
:100228001202A68F097F0112036512038CAF0922FF
:10031500EF1FAC0670011E4C600A7D027CEFDCFE0F
:05032500DDFC80EC226C
:09038300D2A0D2A1C2A0C2A122A5
:07038C00C2A0D2A1D2A02201
:10023800AD07E4FB7E007480A803088006CEA2E721
:1002480013CE13D8F8FFEDF582EF558224FF92A064
:09025800D2A1C2A10BBB08DC22FB
:1002A600E4FFD2A0FED2A130A00DA806748008807B
:0E02B60002C313D8FC4207C2A10EBE08E82204
:0A036500EF24FF92A0D2A1C2A12252
:0C034D00D2A0D2A1A2A0E433FFC2A122E2
:10009700E4F52220B0117F14FE12031520B04C7531
:1000A700220130B0FD803D20B1127F147E00120383
:1000B7001520B13775220230B1FD802820B2127F9A
:1000C700147E0012031520B22275220330B2FD8080
:1000D7001320B3177F147E0012031520B30D75226A
:0E00E7000430B3FD7F147E00120315AF2222F9
:06033E00C2B68F80D2B4AC
:090344007F027EEFDEFEDFFC22E9
:0A036F00C2B512033EC2B4020344FB
:1002C400CFCDCFCECCCE1200427C007D0A120042AC
:0402D400ED2430FFE6
:0A02D800D2B512033EC2B402034483
:1002FF00AE07BE0104ED148006BE0209ED243F4493
:06030F0080FF12036F22C3
:10032A007F3812036F7F0C12036F7F0612036F7FF1
:04033A000102036F4A
:0A037900AC031202FFAF040202D829
:100261008B088A09890A1202FFE4FDAB08AA09A9D1
:100271000A8D82758300120003FF60061202D80DF9
:0302810080E922EF
:0C01D5007F0AEA24FFFDE434FFFC7E00FA
:1001E1008E0D8F0E8C0F8D107F017E00E4FBEBC313
:1001F1009510E50F6480F8748098500AAC0DAD0E2F
:070201001200300B80E8221F
:1002E2008A0A8B0B1202FFAA0CEAD39400400D1269
:0D02F20001D5AC0AAD0B1202C41A80ED223A
:1000F5001202FFC3EA64809480400B7F2B1202D862
:100105008A168B17800E7F2D1202D8C3E49BF51734
:10011500E49AF516AA15EAD39400400D1201D5AC60
:0A01250016AD171202C41A80ED2275
:10012F008A1A8B1B1202FFAA1CEAD3940040297F64
:10013F00101201D7AC1AAD1BCFCDCFCECCCE120043
:10014F0042EF540FFEC3940AEE5004243080022471
:09015F0037FF1202D81A80D122E8
:100168008A1F8B201202FFAA21EAD394004028EAB2
:1001780024FFFDE434FFFC7F027E001201E1AC1F86
:10018800AD20CFCDCFCECCCE120042EF54012430DB
:08019800FF1202D81A80D222E6
:0603930068656C6C6F0050
:1001A00012032A7BFF7A0379937D017F011202619A
:1001B0007D427F011202847F057E001203157F01BC
:1001C0001202088F23EFFB7A00750C037D017F027A
:0501D0001202E280FEB6
:030000000203599F
:0C035900787FE4F6D8FD7581230201A036
:10000300BB010CE58229F582E5833AF583E02250B2
:1000130006E92582F8E622BBFE06E92582F8E222FC
:0D002300E58229F582E5833AF583E4932216
:10003000EF8DF0A4A8F0CF8CF0A428CE8DF0A42EE4
:02004000FE229E
:10004200BC000BBE0029EF8DF084FFADF022E4CCA2
:10005200F875F008EF2FFFEE33FEEC33FCEE9DEC6B
:10006200984005FCEE9DFE0FD5F0E9E4CEFD22EDB1
:10007200F8F5F0EE8420D21CFEADF075F008EF2FFB
:10008200FFED33FD4007985006D5F0F222C398FDEC
:050092000FD5F0EA2289
:00000001FF
