:1000EE00EF4E600F7D0B7CBEDCFEDDFCEF1F70F073
:0400FE001E80ED2251
:10000E00E4F50C20B0107F141200EE20B044750CF5
:10001E000130B0FD803720B1107F141200EE20B1F8
:10002E0031750C0230B1FD802420B2107F14120005
:10003E00EE20B21E750C0330B2FD801120B3137F7B
:10004E00141200EE20B30B750C0430B3FD7F1412A6
:05005E0000EEAF0C22D2
:1000D7005389F0438901758AFF758CFFC28DD28CD5
:0700E700D2A9D2AFC2B92279
:1000B7007590FE1200D712000E8F0BE50B60F7B498
:1000C70001F4050AE50AC3940240EBE4F50A80E669
:03000B000200638D
:10006300C0E0C0D075D000C000C007758A18758C79
:10007300FC0509E50970020508C394F4E508940139
:100083004029750800750900E50A700DAF907801E5
:10009300EF08800123D8FDF590E50AB4010DAF9078
:1000A3007801EF08800103D8FDF590D007D000D088
:0400B300D0D0E03297
:03000000020102F8
:0C010200787FE4F6D8FD75810C0200B790
:00000001FF
