:020000040800F2
:10000000500B0020B5010008B515000809110008C3
:10001000B1150008AD030008251F0008000000000E
:10002000000000000000000000000000191F000890
:10003000B103000800000000151F00081D1F000884
:10004000CF010008CF010008CF010008CF01000850
:10005000CF010008CF010008CF010008CF01000840
:10006000CF010008CF010008CF010008CF01000830
:10007000CF010008CF010008CF010008CF01000820
:10008000CF010008CF010008CF010008CF01000810
:10009000CF010008CF010008CF010008CF01000800
:1000A000CF010008CF010008CF010008CF010008F0
:1000B000CF010008CF010008CF010008CF010008E0
:1000C000CF010008CF010008CF010008CF010008D0
:1000D000CF010008CF010008CF010008CF010008C0
:1000E000CF010008CF010008CF01000800F002F89E
:1000F00000F050F814A696E8000CB244B344DA4578
:1001000001D100F047F8BAE80F000FA696E83000DA
:10011000A5EB040504EB0607AAEB0704A7F101070A
:100120004FEA15154FEA3414A4F10104AC4201D38F
:1001300000F030F813F0010F18BFFB1A43F0010371
:1001400000F001F8DBE71847C01E0000E01E0000C9
:10015000103A24BF78C878C1FAD8520724BF30C8F3
:1001600030C144BF04680C60704700007047000055
:100170000023002400250026103A28BF78C1FBD8B0
:10018000520728BF30C148BF0B6070471FB51FBD65
:1001900010B510BD00F0CFF81146FFF7F7FF01F0E2
:1001A000C3FE00F0EDF803B4FFF7F2FF03BC00F06C
:1001B000F5F800000948804709480047FEE7FEE7D8
:1001C000FEE7FEE7FEE7FEE7FEE7FEE7FEE7FEE707
:1001D00004480549054A064B70470000211F0008E6
:1001E000ED00000850050020500B002050070020B3
:1001F00050070020032A40F2308010F0030C00F07A
:10020000158011F8013BBCF1020F624498BF11F850
:1002100001CB00F8013B38BF11F8013BA2F1040209
:1002200098BF00F801CB38BF00F8013B11F0030381
:1002300000F04F80083AC0F0088051F8043B083ABB
:1002400051F804CBA0E80810F5E7121D5CBF51F887
:10025000043B40F8043BAFF30080D20724BF11F801
:10026000013B11F801CB48BF11F8012B24BF00F866
:10027000013B00F801CB48BF00F8012B70474FF05D
:10028000000200B5134694469646203922BFA0E8E6
:100290000C50A0E80C50B1F12001BFF4F7AF0907F2
:1002A00028BFA0E80C5048BF0CC05DF804EB8900E3
:1002B00028BF40F8042B08BF704748BF20F8022B26
:1002C00011F0804F18BF00F8012B7047704770473E
:1002D000704710B5203AC0F00B80B1E81850A0E884
:1002E0001850B1E81850A0E81850203ABFF4F5AF04
:1002F0005FEA027C24BFB1E81850A0E8185044BF60
:1003000018C918C0BDE810405FEA827C24BF51F8CC
:10031000043B40F8043B08BF7047D20728BF31F8C0
:10032000023B48BF11F8012B28BF20F8023B48BF11
:1003300000F8012B7047754600F02CF8AE4605001A
:100340006946534620F00700854618B020B5FFF7F0
:100350003FFFBDE820404FF000064FF000074FF090
:1003600000084FF0000BAC46ACE8C009ACE8C0098F
:10037000ACE8C009ACE8C00921F007018D46704720
:1003800010B50446AFF300802046BDE81040FFF7EB
:100390000ABF0000004870471000002001491820E3
:1003A000ABBEFEE72600020070470000FEE700003B
:1003B00070470000EFF3108072B600BFFEE7000048
:1003C000B0B5044600F018F9054640F20000C2F24C
:1003D00000000078611C18BF044400BF00F00CF955
:1003E000401BA042FAD3B0BD2DE9F04F82B00E6899
:1003F000002E00F0FD8041F20042C4F2010204230D
:1004000040F2004E904208BF03234FF6FF7CC4F237
:10041000010E009300240123C1F2100C4FF0000ADA
:100420004FF000094BE000BF41F20002C4F20102AC
:10043000009F904208BF022704F00C030F229A404D
:100440002BEA020207FA03F34FEA9A051A4346F829
:1004500025204E6840F20C45F202DEF8082054BF19
:1004600022EA080242EA0802C4F20105CEF8082096
:100470002A68B30254BF22EA080242EA08022A604C
:10048000B303DEF8042054BF22EA080242EA08025D
:10049000F303CEF80420DEF800204FF0010354BF30
:1004A00022EA080242EA0802CEF800200E680AF1A9
:1004B000010A36FA0AF204F1040400F0998003FA02
:1004C0000AFB16EA0B08F1D04E68664512DC122EC4
:1004D00056D8DFE806F0350B4D495555555555555D
:1004E0005555555555555545510000BFD1F80C90FF
:1004F00046E000BF4FF6FF72C1F2210296420FDCC8
:100500000022C1F2110296421AD00022C1F2120258
:10051000964215D00022C1F22102964210D02FE05F
:100520000022C1F2220296420AD00022C1F2310218
:10053000964205D00022C1F23202964220D100BF7D
:100540008A684AB1012A14BFC0F814B0C0F810B0CC
:100550004FF0080914E000BF4FF0040910E000BF9D
:10056000CA6802F104090BE04FF0000908E000BF7F
:10057000CA6802F1080903E0CA6802F10C0900BF69
:1005800002462646B8F5807F24BF0432203E176815
:100590000F25B54027EA050509FA06F6354315602B
:1005A000CA79D2067FF582AF41F21803C4F2020382
:1005B0001A68AEF57E7642F001021A601A6802F0FF
:1005C00001020192019A2AF0030256F802B040F6A5
:1005D0000002C4F20102904208D040F60042C4F288
:1005E000010290427FF420AF012725E7002723E78F
:1005F00002B0BDE8F08F000040F24850C2F20000A7
:1006000000687047002804BF01207047F0B581B032
:10061000044690F83D0028B9002084F83C002046AC
:1006200000F090F9242084F83D002068016821F052
:1006300001010160016841F400410160016821F499
:100640000041016000F036FB636848F2A16CC0F223
:10065000010C40F60011C0F23D0163453CBF48F279
:100660008041C0F21E01884202D2012001B0F0BDDB
:100670004DF68361C4F21B31A0FB01122168970C77
:10068000D1F804E04FF496762EF03F0545EA924506
:100690004D60774348F638160D6AC0F24106A7FB55
:1006A000067625F03F07634538BF960C721C3A4327
:1006B0000A62CA6948F2A0664CF6FF77C0F20106EA
:1006C000B34222EA07020BD801385B00B0FBF3F01B
:1006D00001306FF31F30042898BF04201BE000BFD7
:1006E000A768013857B119277B43B0FBF3F00130FD
:1006F0006FF31F3070B100F5804007E003EB430358
:10070000B0FBF3F001306FF31F3018B100F500407B
:1007100001E000BF01201043C8610868D4E9072345
:1007200020F0C000104318430860886848F2FF3288
:1007300004F10C0790438CCF18431043A6698860DE
:10074000C86820F0FF0038433043C860086840F0B4
:100750000100086000202021206484F83D102063FF
:1007600084F83E0001B0F0BD2DE9F04383B01E4691
:10077000174689460446FFF73FFF94F83D102029AD
:1007800024D10546206800BF816989071AD5FFF783
:1007900033FF411B20681A29F6D381698907F3D5F5
:1007A00000202021206384F83D1084F83E00216C55
:1007B00041F02001216484F83C00022003B0BDE830
:1007C000F08300BF94F83C10012903D1022003B04C
:1007D000BDE8F083012184F83C100168C90703D10A
:1007E000016841F001010160016840F2020821F452
:1007F00000610160212184F83D10102184F83E1031
:100800000021216467626685618DC0F2010821853F
:10081000A8F10211E162E16A0A9E11F5803F18BF5A
:1008200001291DD1016841F48071016020464FF01B
:10083000011100223346009500F0C6FC50B120683B
:100840000068C00544BF4FF400702064012003B06D
:10085000BDE8F0832069B0F5804F07D1FE2015E098
:100860000829DFD0216B1229DCD0DFE7062000EA5F
:10087000D9102168F030086108F10601204632469F
:100880002B4600F087FD0028E0D1FF20216800EA18
:10089000090008612046414632462B4600F07AFDA9
:1008A0000028D3D10020029020684169029180691C
:1008B0000290029806E000BF204631462A4600F02A
:1008C00025FC18BB208D68B3204631462A4600F02F
:1008D000CDFDD8B9606A2168024612F8013B0B6170
:1008E0006262628D013A6285228D531E23854F69B3
:1008F0007F07E1D51B04DFD0437802300B616062D3
:10090000608D01386085901E2085D5E7206C042815
:100910009CD12068016841F400710160012003B09E
:10092000BDE8F0832068016841F400710160202077
:1009300084F83D00002084F83E0084F83C0003B0B9
:10094000BDE8F08310B586B0016845F20040C4F2FE
:10095000000081424FF00001CDE90411CDE9021100
:1009600002D006B010BD00BF41F21804C4F2020468
:10097000216800F5384041F008012160216801F04C
:10098000080101910199C0210291122103910321D3
:10099000059102A9FFF728FD606840F4001060602F
:1009A000606800F400100190019806B010BD0000CE
:1009B00040F2000040F24851C2F20000C2F20001D1
:1009C00000780A68104408607047000080B542F261
:1009D0000000C4F20200016841F010010160032030
:1009E00000F07AF80F2000F005F800F027F800205A
:1009F00080BD000070B540F20006C2F2000640F271
:100A000008013278C2F200014FF47A730968B3FB2F
:100A1000F2F20446B1FBF2F1084600F05FFB0F2C46
:100A20004FF0010508D838B94FF0FF3021460022B9
:100A3000002500F025F87460284670BD82B041F2B0
:100A40001800C4F202000168022241F001010160B5
:100A5000016801F0010101910199416841F0805163
:100A60004160406800F08050009000980420C4F27B
:100A70000100016862F31A61016002B07047000072
:100A800010B54EF60C5CCEF2000CDCF80030C3F36F
:100A9000022E8EF00704042C28BF0424BEF10303A9
:100AA0004FF0FF3E0EFA04F438BF0023A1439940F3
:100AB0000EFA03F39A43114300F00F0200F1604372
:100AC0000901043A03F564436244002848BF02F177
:100AD0000C03197010BD00004EF60C51CEF200014F
:100AE0000A684FF6FF031A4060F30A2242F0806062
:100AF00040F0FD7008607047002804BF0120704777
:100B00002DE9F04381B042F20008C4F20208044625
:100B1000D8F800000D4600F0070081420CD9D8F843
:100B2000000020F007002843C8F80000D8F80000B3
:100B300000F00700A8426CD1206841F20409810747
:100B4000C4F2020917D5410705D5D9F8001041F4C0
:100B5000E061C9F80010010705D5D9F8001041F48B
:100B60006051C9F80010D9F80010A26821F0F00116
:100B70001143C9F80010C00742D1D8F8000000F0B6
:100B8000070085420CD2D8F8000020F00700284367
:100B9000C8F80000D8F8000000F00700A84238D1DB
:100BA0002068410707D5D9F80010E26821F4E06118
:100BB0001143C9F80010000708D5D9F800002169D1
:100BC00020F4605040EAC100C9F80000D9F80020C4
:100BD00002F00C00082841F20020C0F27A004DD14A
:100BE00041F6F673C2F38341C0F60003595CD203A9
:100BF00038D440F60010C0F23D0048433EE000BF4C
:100C0000606859F8041C022808D0012826D18903FD
:100C100006D4012001B0BDE8F08300BF8901F8D5FA
:100C2000D9F8001021F003010843C9F80000FFF7CC
:100C3000E3FC064641F28837D9F80000616800F00D
:100C40000C00B0EB810F98D0FFF7D6FC801BB842A8
:100C5000F2D9032001B0BDE8F08300BF8907D8D5E1
:100C6000DEE700BFD9F8002041F6F473C2F340423A
:100C7000C0F600039A5C4843B0FBF2F0D9F80010CC
:100C800041F6DC72C1F30311C0F60002515C40F280
:100C9000080220FA01F140F20400C2F200000068EC
:100CA000C2F200021160FFF7A5FE002001B0BDE80E
:100CB000F083000040F2080041F20401C2F200009B
:100CC000C4F202010068096841F6EC72C1F3022126
:100CD000C0F60002515CC84070470000002804BF05
:100CE000012070472DE9F04182B00446007841F2BE
:100CF0000006C007C4F202060CD0706800F00C00B9
:100D0000042840F081803068800303D560680028A3
:100D100000F04681207880071BD5706810F00C0F1A
:100D200009D0706800F00C00082840F087807068D7
:100D3000C00300F183803068800703D52069012853
:100D400040F02E813068616920F0F80040EAC1006F
:100D500030602078000713D4207840072CD4E56950
:100D6000002D00F01881706800F00C00082840F099
:100D7000A780012D40F00481012002B0BDE8F08180
:100D8000A069002800F084800020C4F242200121E4
:100D9000C0F88014FFF730FC054600BF706A80077A
:100DA00000F1B280FFF728FC401B0228F6D903208F
:100DB00002B0BDE8F08100BFF0695FEAC00808D466
:100DC000F06940F08050F061F06900F080500090D0
:100DD000009847F20007C4F200073868C00549D4FC
:100DE000386840F480703860FFF706FC054600BFA5
:100DF0003868C0053ED4FFF7FFFB401B6428F7D9D5
:100E0000032002B0BDE8F081706800F00C000828F3
:100E100003D17068C0033FF576AF61683068002980
:100E200000F00C81B1F5A02F00F00081B1F5803FFA
:100E300040F01A8140F480301CE100BF2069002896
:100E400040F20000C4F2422000F0888001210160DD
:100E5000FFF7D2FB054600BF306880073FF572AF51
:100E6000FFF7CAFB401B0228F6D9032002B0BDE8F9
:100E7000F08100BFE168306A002900F09D800529FB
:100E800000F09280012940F0AF8040F00100B1E015
:100E90000020C4F242200021C0F88014FFF7ACFB10
:100EA000054600BF706A80077FF556AFFFF7A4FBC9
:100EB000401B0228F6D9032002B0BDE8F08100BF34
:100EC0000027C4F2422700203866FFF795FB022D69
:100ED00005460DD13068800140F1DE80FFF78CFBC4
:100EE000401B02284FF00300F4D902B0BDE8F081A6
:100EF000306880014FD5FFF77FFB401B02284FF081
:100F00000300F5D9F1E700BF40F20800C2F200008B
:100F1000006844F6D351C1F26201A0FB0101480A06
:100F2000019000BF00BF0198411E002801913FF4CD
:100F300013AF00BF0198411E002801913FF40CAF90
:100F400000BF0198411E002801913FF405AF00BF8A
:100F50000198411E00280191E4D1FDE600210160C5
:100F6000FFF74AFB054600BF306880077FF5F1AE0A
:100F7000FFF742FB401B02284FF00300F4D9B4E70F
:100F80007068216A00F480328A4209D1616A00F4F3
:100F90007010884204D1002002B0BDE8F08100BF8B
:100FA000012002B0BDE8F08140F004003062306AF8
:100FB00040F001001EE000BF20F001003062306A06
:100FC00020F004003062FFF717FB054641F2883736
:100FD000306A800720D5FFF70FFB401BB8424FF067
:100FE0000300F5D981E700BF20F001003062306ACC
:100FF00020F004003062FFF7FFFA054641F288371F
:10100000306A800708D4FFF7F7FA401BB842F7D9D7
:10101000032002B0BDE8F081B8F1000F3FF59FAEAC
:10102000F06920F08050F06199E600BF40F4802024
:101030003060306840F480301CE000BF20F4803025
:101040003060306820F480203060FFF7D5FA054624
:10105000306880037FF55EAEFFF7CEFA401B642850
:101060004FF00300F4D940E720F48030306030685E
:1010700020F480203060FFF7BFFA05463068800317
:101080003FF548AEFFF7B8FA401B6428F6D90320B5
:1010900002B0BDE8F08100BF206AB0F5803F05D105
:1010A0007168A26821F40031114371607168626A4D
:1010B00021F4741111430843706001203866FFF772
:1010C0009BFA0446306880013FF565AFFFF794FA5C
:1010D000001B02284FF00300F4D906E7411E002050
:1010E000B0EB116F1CBF012070474EF21002CEF220
:1010F000000251604EF62351CEF20001F0230B7036
:101100000721906011607047FEE7000070B503682A
:10111000044653F8140F400711D40E46481C29D03A
:1011200086BB00BF1868400527D4FFF765FA23681F
:1011300053F8140F400737D518684007F2D5002040
:1011400070BD00BF18684007F9D41868400514D472
:1011500018684007F3D4186840050ED41868400793
:10116000EDD41868400508D4186840074FF0000017
:1011700048BF70BD18684005E4D56FF48060186002
:10118000042012E0154603E053F8140F4007D6D4AC
:1011900018684005F1D4FFF72FFA401B2368B042CE
:1011A000F2D958694007EFD4202000212022216382
:1011B00084F83D2084F83E10226C10432064012006
:1011C00084F83C1070BD00002DE9F0410546006830
:1011D0001E46144601F47F0201338FB242D0DDF87F
:1011E0001880B2F5803F40F0878040693840C01BCE
:1011F000B0FA80F04009844240F0C8804EB924E043
:1012000040693840C01BB0FA80F04009844240F089
:10121000BD80FFF7F1F9A0EB08012868B142EFD9D2
:1012200041693940C91BB1FA81F149098C42E7D1C2
:101230009BE000BF40693840C01BB0FA80F0400915
:1012400084424FF0000040F0A280FFF7D5F92868F3
:1012500041693940C91BB1FA81F149098C42E9D190
:1012600083E000BFB2F5803F24D100BF416939401F
:10127000C91BB1FA81F149098C4240F0878041696C
:101280003940C91BB1FA81F149098C4240F07E8096
:1012900041693940C91BB1FA81F149098C4275D1C4
:1012A00041693940C91BB1FA81F149098C42DDD04D
:1012B0006CE000BF81693940C91BB1FA81F149096D
:1012C0008C4263D181693940C91BB1FA81F1490966
:1012D0008C425BD181693940C91BB1FA81F149095E
:1012E0008C4253D181693940C91BB1FA81F1490956
:1012F0008C42DFD04AE000BF80693840C01BB0FAA2
:1013000080F04009844241D146B923E080693840E9
:10131000C01BB0FA80F04009844237D1FFF76CF966
:10132000A0EB08012868B142F0D981693940C91B96
:10133000B1FA81F149098C42E8D116E08069384060
:10134000C01BB0FA80F0400984424FF0000018BF83
:10135000BDE8F081FFF750F9286881693940C91B61
:10136000B1FA81F149098C42E8D10020202128639B
:1013700085F83D1085F83E00296C41F02001296474
:1013800085F83C000120BDE8F08100BF0020BDE8E9
:10139000F0810000F0B581B0044600681D46436945
:1013A0008FB203EA0701B94202D1002001B0F0BDBB
:1013B0004169164601323CD0490512D47EB300BFC4
:1013C000FFF71AF9411B2068B14203D9416939403E
:1013D000B9422BD141693940B942E6D0416949054A
:1013E000EED5016841F4007101606FF480614161E4
:1013F000042000212022216384F83D2084F83E103F
:10140000226C1043206484F83C10012001B0F0BD30
:1014100041693940B942C8D041694905E1D4FFF773
:10142000EBF8206841693940B942F1D02020E0E76B
:1014300041694905D5D441693940B942B5D04169BE
:101440004905CED441693940B942AED04169490518
:10145000C7D441693940B942A7D041694905C0D4D0
:1014600041693940B942E3D19FE7000070B5036894
:10147000044653F8140F000611D40E46481C29D018
:1014800086BB00BF1868400527D4FFF7B5F823686E
:1014900053F8140F000637D518680006F2D500205F
:1014A00070BD00BF18680006F9D41868400514D450
:1014B00018680006F3D4186840050ED418680006B2
:1014C000EDD41868400508D4186800064FF00000F5
:1014D00048BF70BD18684005E4D56FF4806018609F
:1014E000042012E0154603E053F8140F0006D6D48A
:1014F00018684005F1D4FFF77FF8401B2368B0421D
:10150000F2D958690006EFD420200021202221635F
:1015100084F83D2084F83E10226C104320640120A2
:1015200084F83C1070BD000083B041F21800C4F292
:101530000200016841F020010160016801F0200112
:1015400002910299016841F004010160016801F013
:10155000040101910199016841F0080101600068EE
:1015600000F008000090009803B0704780B540F28A
:10157000F44045F20041C2F20000C4F2000141F61D
:10158000802200234FF4804CC0F2060280E80E0057
:10159000C0E9033CC0E90533C0E90733FFF732F87F
:1015A000002808BF80BDBDE88040FEF703BF0000F3
:1015B000FEE70000FEE700002DE9F04F88B083460B
:1015C00003200C46A0EB420C00274FF0010A0793C2
:1015D000CDE900B106E000BF07B212B297428C44D9
:1015E00000F31082ABEB020041B2E51B049100292D
:1015F0004FF000015FFA85FE48BF0121BEF13F0FA9
:101600004FF0000388BF012353EA0108C0B20690DF
:1016100016D00BEB020041B200294FF0000948BF81
:101620004FF00109BEF13F0FC0B2039058D8002916
:1016300056D4079805F007010AFA01F318BB43E0F6
:1016400005F007000AFA00F3079840F2700100283D
:101650000EF0F800C2F2000101EB001020D0069E4F
:101660004FF00009815D994381550BEB020041B2B7
:10167000002948BF4FF00109BEF13F0FC0B20390EF
:101680002ED800292CD440F270000EF0F801C2F2DE
:10169000000000EB011103980E5C26EA03031EE034
:1016A000069E4FF00009815D194381550BEB020046
:1016B00041B2002948BF4FF00109BEF13F0FC0B24F
:1016C00003900DD800290BD440F270000EF0F80101
:1016D000C2F2000000EB011103980E5C33430B547F
:1016E000ABEB07014BB2A0185FFA81FB002BC6B22F
:1016F000059602901ED43F2E1CD800F007010798D3
:101700000AFA01F1002840F2700006F0F806C2F271
:10171000000027D000EB061616F80B00B8F1000FFA
:1017200020EA010006F80B0037D105F007000AFA9D
:1017300000F109E0B8F1000F2FD1079905F007007B
:1017400000290AFA00F11CD040F270060EF0F800F1
:10175000C2F20006069D06EB0010465D26EA010176
:101760001AE000BF00EB061010F80B60B8F1000F94
:1017700041EA060100F80B100FD105F007000AFA44
:1017800000F140F270060EF0F800C2F20006069D6D
:1017900006EB0010465D31434155A4EB020A002BD5
:1017A0005FFA8AF32AD43F2B28D80AF007000121D8
:1017B0008140079803F0F806002840F27000C2F25A
:1017C000000000EB06103FD010F80B6004EB070E92
:1017D0005FFA8EF826EA0101B8F13F0F4FF00006DC
:1017E00088BF012656EA090500F80B1040D10EF01B
:1017F00007000121DDF800B0814017E004EB070E7F
:101800005FFA8EF8B8F13F0F4FF0000688BF01264F
:1018100056EA09002CD107990EF0070000294FF075
:101820000101DDF800B001FA00F12BD040F27004A4
:1018300008F0F800C2F2000404EB0010039C055D00
:1018400025EA010129E000BF10F80B6004EB070E48
:101850005FFA8EF846EA0105B8F13F0F4FF0000637
:1018600088BF012656EA090100F80B5004D000BFDA
:10187000DDF800B012E000BF0EF007000121DDF836
:1018800000B0814040F2700408F0F800C2F2000499
:1018900004EB0010039C055D294301550BEB070188
:1018A00048B20028C9B221D43F2B1FD8079D0AF0A7
:1018B00007044FF0010A0AFA04F49DB340F27005E0
:1018C00003F0F803C2F2000505EB03135D5C00288A
:1018D00025EA04045C5444D405983F2841D8029872
:1018E00000F007000AFA00F00EE000BF00284FF0F9
:1018F000010A36D405983F2833D80298079B00F098
:1019000007000AFA00F003B3059B40F2700403F0ED
:10191000F803C2F2000404EB03135C5C24EA000049
:101920001EE000BF03F0F80040F27003C2F20003B3
:1019300003EB0010435C2343059C43543F2C10D819
:10194000029800F007000AFA00F0059B40F27004CC
:1019500003F0F803C2F2000404EB03135C5C2043C1
:101960005854049800284FF0000048BF012030432D
:1019700014D1079940F270030EF00700002908F017
:10198000F801C2F20003069E0AFA00F003EB01110F
:101990008B5D14BF23EA000018438855781C0FFAAA
:1019A0008CF3062101EB8001B3F1FF3F4FF00A03F6
:1019B000A0EB0207C8BF013AC8BF03EB87010BEBDE
:1019C00000035FB2019C002F3FF506AEA718FEB2E0
:1019D0003F2E3FF601AE079D07F00707002D40F2AE
:1019E000700506F0F806C2F20005DBB20AFA07F746
:1019F00005EB0616F55C14BF25EA07072F43F754DD
:101A0000EAE500BF08B0BDE8F08F00002DE9F04323
:101A100081B040F2704440F2F445C2F20004AE20BE
:101A2000C2F2000560704FF0FF362846782122464A
:101A300002230096FEF798FE4FF0200828467821F2
:101A40002246022384F801800096FEF78DFE1027BF
:101A5000284678212246022367700096FEF784FE0E
:101A6000B020607028467821224602230096FEF7B7
:101A70007BFEC8206070284678212246022300960B
:101A8000FEF772FE4FF00009284678212246022315
:101A900084F801900096FEF767FE284678212246DA
:101AA000022367700096FEF75FFE402060702846B4
:101AB0007821224602230096FEF756FE81206070B0
:101AC00028467821224602230096FEF74DFEDF20AD
:101AD000607028467821224602230096FEF744FED5
:101AE000A120607028467821224602230096FEF746
:101AF0003BFEA620607028467821224602230096ED
:101B0000FEF732FEA8206070284678212246022384
:101B10000096FEF729FE3F20607028467821224675
:101B200002230096FEF720FEA4206070284678214C
:101B3000224602230096FEF717FED3206070284647
:101B40007821224602230096FEF70EFE28467821D1
:101B50002246022384F801900096FEF705FED52068
:101B6000607028467821224602230096FEF7FCFD8D
:101B7000F020607028467821224602230096FEF766
:101B8000F3FDD92060702846782122460223009672
:101B9000FEF7EAFD222060702846782122460223C3
:101BA0000096FEF7E1FDDA20607028467821224693
:101BB00002230096FEF7D8FD122060702846782197
:101BC000224602230096FEF7CFFDDB2060702846F8
:101BD0007821224602230096FEF7C6FD284678218A
:101BE0002246022384F801800096FEF7BDFD8D2079
:101BF000607028467821224602230096FEF7B4FD45
:101C00001420607028467821224602230096FEF7B1
:101C1000ABFD40F27000C2F200004FF48061FEF7AD
:101C20002EFB00F017F8AF2060702846782122467E
:101C300002230096FEF798FD01B0BDE8F083000096
:101C400080B540F27000C2F200004FF48061FEF7F0
:101C500016FB80BD2DE9F04F81B040F27248C2F210
:101C600000084020454640F2704740F2F44605F82F
:101C7000010BC2F20007B020C2F2000678704FF0EC
:101C8000FF34304678213A4602230094FEF76CFD7B
:101C90004FF0000A304678213A46022387F801A027
:101CA0000094FEF761FD4FF0100B304678213A4664
:101CB000022387F801B00094FEF756FD40F2700948
:101CC000C2F20009284649468022FEF793FA3046C0
:101CD0007821424681230094FEF746FDB1207870BA
:101CE000304678213A4602230094FEF73DFD304607
:101CF00078213A46022387F801A00094FEF734FDCC
:101D0000304678213A46022387F801B00094FEF766
:101D10002BFD09F1800128468022FEF76BFA304640
:101D20007821424681230094FEF71EFDB220787090
:101D3000304678213A4602230094FEF715FD3046DE
:101D400078213A46022387F801A00094FEF70CFDA3
:101D5000304678213A46022387F801B00094FEF716
:101D600003FD09F5807128468022FEF743FA3046CC
:101D70007821424681230094FEF7F6FCB320787068
:101D8000304678213A4602230094FEF7EDFC3046B7
:101D900078213A46022387F801A00094FEF7E4FC7C
:101DA000304678213A46022387F801B00094FEF7C6
:101DB000DBFC09F5C07128468022FEF71BFA30468D
:101DC0007821424681230094FEF7CEFCB42078703F
:101DD000304678213A4602230094FEF7C5FC30468F
:101DE00078213A46022387F801A00094FEF7BCFC54
:101DF000304678213A46022387F801B00094FEF776
:101E0000B3FC09F5007128468022FEF7F3F930464D
:101E10007821424681230094FEF7A6FCB520787015
:101E2000304678213A4602230094FEF79DFC304666
:101E300078213A46022387F801A00094FEF794FC2B
:101E4000304678213A46022387F801B00094FEF725
:101E50008BFC09F5207128468022FEF7CBF930462D
:101E60007821424681230094FEF77EFCB6207870EC
:101E7000304678213A4602230094FEF775FC30463E
:101E800078213A46022387F801A00094FEF76CFC03
:101E9000304678213A46022387F801B00094FEF7D5
:101EA00063FC09F5407128468022FEF7A3F930460D
:101EB0007821424681230094FEF756FCB7207870C3
:101EC000304678213A4602230094FEF74DFC304616
:101ED00078213A46022387F801A00094FEF744FCDB
:101EE000304678213A46022387F801B00094FEF785
:101EF0003BFC09F5607128468022FEF77BF93046ED
:101F00007821424681230094FEF72EFC01B0BDE803
:101F1000F08F00007047000070470000FEF748BDDA
:101F200070470000FEE7000090B0FEF74FFD002470
:101F30000120CDE90B44CDE9094406900A904FF405
:101F4000E0104FF4803102250F9006A8CDE9071468
:101F5000CDE90D51FEF7C2FE20B1EFF3108072B64D
:101F6000FEE700BF0F20CDE901054FF48060CDE909
:101F7000040401A802210394FEF7BEFD20B1EFF393
:101F8000108072B6FEE700BFFFF7CEFAFFF7EEFA59
:101F90001420FEF715FAFFF739FD0025FFF750FE74
:101FA000ECB24020202122460023FFF705FB680009
:101FB000C2B2402020210023FFF7FEFA05EB4500C6
:101FC000C2B2402020210023FFF7F6FAFFF742FEBD
:101FD00000203F2C38BF681C0546DFE700000000EA
:101FE00000000000010203040607080900000000C9
:101FF00001020304010202030405060708090A0B93
:102000000C0D0E0F1010000028200008000000200A
:1020100010000000500100083820000810000020C7
:10202000400B0000700100080100000010000000DB
:0820300000127A00000000001C
:04000005080000ED02
:00000001FF
