:1002A000EF1FAC0670011E4C600A7D027CEFDCFE85
:0502B000DDFC80EC22E2
:0602C900C2B68F80D2B422
:0902CF007F027EEFDEFEDFFC225F
:0A02F100C2B51202C9C2B40202CF66
:10024F00CFCDCFCECCCE1200427C007D0A12004221
:04025F00ED2430FF5B
:0A026300D2B51202C9C2B40202CFE4
:10028A00AE07BE0104ED148006BE0209ED243F4408
:06029A0080FF1202F122B8
:1002B5007F381202F17F0C1202F17F061202F17FE4
:0402C500010202F13F
:0A02FB00AC0312028AAF0402026392
:10022C008B088A09890A12028AE4FDAB08AA09A97B
:10023C000A8D82758300120003FF60061202630DA3
:03024C0080E92224
:0C01F9007F0AEA24FFFDE434FFFC7E00D6
:100205008E0D8F0E8C0F8D107F017E00E4FBEBC3EE
:100215009510E50F6480F8748098500AAC0DAD0E0A
:070225001200300B80E822FB
:10026D008A0A8B0B12028AAA0CEAD39400400D1253
:0D027D0001F9AC0AAD0B12024F1A80ED2200
:10014E0012028AC3EA64809480400B7F2B120263F2
:10015E008A168B17800E7F2D120263C3E49BF51750
:10016E00E49AF516AA15EAD39400400D1201F9ACE3
:0A017E0016AD1712024F1A80ED2291
:100188008A1A8B1B12028AAA1CEAD3940040297F80
:10019800101201FBAC1AAD1BCFCDCFCECCCE1200C6
:1001A80042EF540FFEC3940AEE5004243080022418
:0901B80037FF1202631A80D12204
:1001C1008A1F8B2012028AAA21EAD394004028EACE
:1001D10024FFFDE434FFFC7F027E00120205AC1F08
:1001E100AD20CFCDCFCECCCE120042EF5401243082
:0801F100FF1202631A80D22202
:0D02D80041444A20204E544320204752004C
:100097001202B57BFF7A0279D87D017F0112022C0B
:1000A7007F9C1200F58E228F23750C03AB23AA22A7
:1000B7007D017F0212026D7FDC1200F58E228F23F5
:1000C700750C03AB23AA227D067F0212026D7FAC5B
:1000D7001200F58E228F23750C03AB23AA227D0B0A
:0E00E7007F0212026D7F647E001202A080B2C2
:1000F500AD07E4F508F509C2A1C2B7FB7E0074801F
:10010500A803088006CEA2E713CE13D8F8FFEDF5B5
:1001150082EF558224FF92A0D2A1C2A10BBB08DCBD
:10012500E4FBD2A1C2A130A5147E80E4A803088017
:1001350005CEC313CE13D8F94209EE42080BBB1006
:09014500E1D2B7E508FF7E0022BB
:030000000202E514
:0C02E500787FE4F6D8FD758123020097B5
:10000300BB010CE58229F582E5833AF583E02250B2
:1000130006E92582F8E622BBFE06E92582F8E222FC
:0D002300E58229F582E5833AF583E4932216
:10003000EF8DF0A4A8F0CF8CF0A428CE8DF0A42EE4
:02004000FE229E
:10004200BC000BBE0029EF8DF084FFADF022E4CCA2
:10005200F875F008EF2FFFEE33FEEC33FCEE9DEC6B
:10006200984005FCEE9DFE0FD5F0E9E4CEFD22EDB1
:10007200F8F5F0EE8420D21CFEADF075F008EF2FFB
:10008200FFED33FD4007985006D5F0F222C398FDEC
:050092000FD5F0EA2289
:00000001FF
