:1002D700E4FDFCC3ED9FEC9E5015E4FBFA0BBB005D
:1002E700010AEB64704A70F50DBD00010C80E42231
:0703B000C292C290C291222B
:10013700A907D292E4FB7E007401A803088005C3D7
:1001470033CE33CED8F9FFE9F582EF558224FF92FB
:1001570091D290C2900BBB08DDE4FB7E007401A82E
:1001670003088005C333CE33CED8F9FFEDF582EF10
:10017700558224FF9291D290C2900BBB08DDC292A8
:010187002255
:10018800AD07E4F9430501D292FB7E007401A80390
:10019800088005C333CE33CED8F9FFEDF582EF558D
:1001A8008224FF9291C290D2900BBB08DDE4FBD26F
:1001B80090C29030910DA8037401088002C333D80F
:0E01C800FC42010BBB08E8C292C291AF0122BB
:10034800EF75F00A84FEEF75F00A84AFF0EEC4543E
:04035800F02FFF2261
:10037000EFC4540FFEEF540FFFEE75F00AA42FFFE9
:01038000225A
:06038100C2B68F80D2B469
:090387007F027EEFDEFEDFFC22A6
:0A039C00C2B5120381C2B402038748
:1002F700CFCDCFCECCCE1200E27C007D0A1200E239
:04030700ED2430FFB2
:0A030B00D2B5120381C2B4020387C9
:10033200AE07BE0104ED148006BE0209ED243F445F
:0603420080FF12039C2263
:10035C007F3812039C7F0C12039C7F0612039C7F38
:04036C000102039CEB
:0A03A600AC03120332AF0402030B94
:1002B4008B088A09890A120332E4FDAB08AA09A94A
:1002C4000A8D827583001200A3FF600612030B0DD2
:0302D40080E9229C
:0C0281007F0AEA24FFFDE434FFFC7E004D
:10028D008E0D8F0E8C0F8D107F017E00E4FBEBC366
:10029D009510E50F6480F8748098500AAC0DAD0E82
:0702AD001200D00B80E822D3
:100315008A0A8B0B120332AA0CEAD39400400D1201
:0D0325000281AC0AAD0B1202F71A80ED2226
:1001D600120332C3EA64809480400B7F2B12030B18
:1001E6008A168B17800E7F2D12030BC3E49BF5171F
:1001F600E49AF516AA15EAD39400400D120281ACD2
:0A02060016AD171202F71A80ED2260
:100210008A1A8B1B120332AA1CEAD3940040297F4E
:1002200010120283AC1AAD1BCFCDCFCECCCE1200B4
:10023000E2EF540FFEC3940AEE50042430800224EF
:0902400037FF12030B1A80D122D2
:100249008A1F8B20120332AA21EAD394004028EA9C
:1002590024FFFDE434FFFC7F027E0012028DAC1FF7
:10026900AD20CFCDCFCECCCE1200E2EF5401243059
:08027900FF12030B1A80D222D0
:0403B7005254430059
:1000030012035C1203B07BFF7A0379B77D017F0192
:100013001202B4E4FD7F8E1201377F1E120348AD36
:10002300077F801201377F0F120348AD077F8212CB
:1000330001377F13120348AD077F841201377D8098
:100043007F8E1201377F811201881203708F237F05
:10005300831201881203708F247F85120188120393
:10006300708F227D807F8E120137E523FB7A007526
:100073000C037D017F02120315E524FB7A00750C46
:10008300037D057F02120315E522FB7A00750C033D
:100093007D097F021203157F147E001202D780A50B
:0300000002039068
:0C039000787FE4F6D8FD7581240200039C
:1000A300BB010CE58229F582E5833AF583E0225012
:1000B30006E92582F8E622BBFE06E92582F8E2225C
:0D00C300E58229F582E5833AF583E4932276
:1000D000EF8DF0A4A8F0CF8CF0A428CE8DF0A42E44
:0200E000FE22FE
:1000E200BC000BBE0029EF8DF084FFADF022E4CC02
:1000F200F875F008EF2FFFEE33FEEC33FCEE9DECCB
:10010200984005FCEE9DFE0FD5F0E9E4CEFD22ED10
:10011200F8F5F0EE8420D21CFEADF075F008EF2F5A
:10012200FFED33FD4007985006D5F0F222C398FD4B
:050132000FD5F0EA22E8
:00000001FF
