:020000040800F2
:10000000980B0020BD010008651C0008451700087A
:10001000611C000801060008C52900080000000056
:10002000000000000000000000000000B9290008E6
:100030000506000800000000B5290008BD290008D9
:10004000D7010008D7010008D7010008D701000830
:10005000D7010008D7010008D7010008D701000820
:10006000D7010008D7010008D7010008D701000810
:10007000D7010008D7010008D7010008D701000800
:10008000D7010008D7010008D7010008D7010008F0
:10009000D7010008D7010008D7010008D7010008E0
:1000A000D7010008D7010008D7010008D7010008D0
:1000B000D7010008D7010008D7010008D7010008C0
:1000C000D7010008D7010008D7010008D7010008B0
:1000D000D7010008D7010008D7010008D7010008A0
:1000E000D7010008D7010008D701000800F002F886
:1000F00000F055F814A696E8000CB244B344DA4573
:1001000001D100F04CF8BAE80F000FA696E83000D5
:10011000A5EB040504EB0607AAEB0704A7F101070A
:100120004FEA15154FEA3414A4F10104AC4201D38F
:1001300000F035F813F0010F18BFFB1A43F001036C
:1001400000F001F8DBE718471830000038300000F5
:10015000103A24BF78C878C1FAD8520724BF30C8F3
:1001600030C144BF04680C60704700007047000055
:100170000023002400250026103A28BF78C1FBD8B0
:10018000520728BF30C148BF0B607047642900F098
:100190007D80002070471FB51FBD10B510BD00F059
:1001A000F4F91146FFF7F7FF02F00EFC00F012FA27
:1001B00003B4FFF7F2FF03BC00F01AFA09488047C6
:1001C00009480047FEE7FEE7FEE7FEE7FEE7FEE739
:1001D000FEE7FEE7FEE7FEE704480549054A064B51
:1001E00070470000C1290008ED00000898050020B4
:1001F000980B002098070020980700200FB41CB52A
:10020000074B06AA7B4469460090059800F073F9F5
:100210000020694600F082F91CBC5DF814FB000068
:10022000150300002DE9F0410E460446002020622F
:100230002046E168884730B3252805D0D4E901215C
:100240009047206A401CF2E7E16820460027884773
:10025000050018D0A5F14100192802D820354FF427
:1002600000673246294620462760FFF78FFF40B1DE
:10027000012804D0F61D26F007060836D8E7361DFB
:10028000D6E72846DAE7206ABDE8F0812DE9F0419B
:100290000646002410687529314616A510D0AFF324
:1002A0000080002802DA404213A507E031688A077F
:1002B00001D512A502E0490704D511A5012401E0EA
:1002C000AFF3008000210A2206F1240709E0B0FB09
:1002D000F2FCB0FBF2F302FB1C00303078541846FD
:1002E000491C0028F3D123462A463046BDE8F04198
:1002F00000F0A3B8000000002D0000002B0000005B
:100300002000000040EA010310B59B070FD1042A2A
:100310000DD310C808C9121F9C42F8D020BA19BAD0
:10032000884201D9012010BD4FF0FF3010BD1AB135
:10033000D30703D0521C07E0002010BD10F8013B8A
:1003400011F8014B1B1B07D110F8013B11F8014BB1
:100350001B1B01D1921EF1D1184610BD032A40F299
:10036000308010F0030C00F0158011F8013BBCF157
:10037000020F624498BF11F801CB00F8013B38BF6F
:1003800011F8013BA2F1040298BF00F801CB38BF7D
:1003900000F8013B11F0030300F0C580083AC0F0FB
:1003A000088051F8043B083A51F804CBA0E8081043
:1003B000F5E7121D5CBF51F8043B40F8043BAFF376
:1003C0000080D20724BF11F8013B11F801CB48BFD0
:1003D00011F8012B24BF00F8013B00F801CB48BF06
:1003E00000F8012B70474FF0000200B51346944609
:1003F0009646203922BFA0E80C50A0E80C50B1F17D
:100400002001BFF4F7AF090728BFA0E80C5048BF90
:100410000CC05DF804EB890028BF40F8042B08BF2E
:10042000704748BF20F8022B11F0804F18BF00F82A
:10043000012B70477047704770472DE9F0470D4614
:1004400099469246044600F124080168880604D5BE
:10045000E06921F01001216000E00120A84201DDE7
:10046000471B00E00027A1697A1902EB0900081A6E
:10047000A0612078C00602D42046AFF30080002699
:1004800008E0D4E901211AF806009047206A401CD0
:10049000761C20624E45F4DB2078C0060AD5204643
:1004A000AFF3008006E0D4E9012130209047206AB4
:1004B000401C2062381EA7F10107F4DC07E0D4E9F4
:1004C000012118F805009047206A401C2062281E70
:1004D000A5F10105F3DC2046AFF30080207800068B
:1004E00002D50220BDE8F0870120FBE701694A1C24
:1004F00002610878704700B58FB0CDE90131002165
:10050000059105497944CDE9031011466846FFF786
:1005100089FE0FB000BD0000E5FFFFFF0A6802F88A
:10052000010B0A60704710B5203AC0F00B80B1E8AB
:100530001850A0E81850B1E81850A0E81850203A18
:10054000BFF4F5AF5FEA027C24BFB1E81850A0E821
:10055000185044BF18C918C0BDE810405FEA827C3B
:1005600024BF51F8043B40F8043B08BF7047D20752
:1005700028BF31F8023B48BF11F8012B28BF20F8F3
:10058000023B48BF00F8012B7047754600F02CF87D
:10059000AE4605006946534620F00700854618B070
:1005A00020B5FFF719FEBDE820404FF000064FF0E0
:1005B00000074FF000084FF0000BAC46ACE8C00954
:1005C000ACE8C009ACE8C009ACE8C00921F00701FB
:1005D0008D46704710B50446AFF300802046BDE855
:1005E0001040FFF7E5BD00000048704710000020F4
:1005F00001491820ABBEFEE726000200704700004C
:10060000FEE7000070470000EFF3108072B600BFF5
:10061000FEE70000B0B5044600F018F9054640F2C8
:100620000000C2F200000078611C18BF044400BF43
:1006300000F00CF9401BA042FAD3B0BD2DE9F04FF9
:1006400082B00E68002E00F0FD8041F20042C4F23C
:100650000102042340F2004E904208BF03234FF6EC
:10066000FF7CC4F2010E009300240123C1F2100CA0
:100670004FF0000A4FF000094BE000BF41F20002CA
:10068000C4F20102009F904208BF022704F00C034D
:100690000F229A402BEA020207FA03F34FEA9A0567
:1006A0001A4346F825204E6840F20C45F202DEF867
:1006B000082054BF22EA080242EA0802C4F20105F7
:1006C000CEF808202A68B30254BF22EA080242EAA0
:1006D00008022A60B303DEF8042054BF22EA0802AD
:1006E00042EA0802F303CEF80420DEF800204FF0BF
:1006F000010354BF22EA080242EA0802CEF80020B1
:100700000E680AF1010A36FA0AF204F1040400F054
:10071000998003FA0AFB16EA0B08F1D04E68664589
:1007200012DC122E56D8DFE806F0350B4D49555530
:10073000555555555555555555555545510000BFBD
:10074000D1F80C9046E000BF4FF6FF72C1F22102D3
:1007500096420FDC0022C1F2110296421AD000220A
:10076000C1F21202964215D00022C1F22102964235
:1007700010D02FE00022C1F2220296420AD00022BD
:10078000C1F23102964205D00022C1F232029642F5
:1007900020D100BF8A684AB1012A14BFC0F814B042
:1007A000C0F810B04FF0080914E000BF4FF0040982
:1007B00010E000BFCA6802F104090BE04FF0000925
:1007C00008E000BFCA6802F1080903E0CA6802F144
:1007D0000C0900BF02462646B8F5807F24BF0432CC
:1007E000203E17680F25B54027EA050509FA06F6E9
:1007F00035431560CA79D2067FF582AF41F21803FE
:10080000C4F202031A68AEF57E7642F001021A6065
:100810001A6802F001020192019A2AF0030256F8C6
:1008200002B040F60002C4F20102904208D040F645
:100830000042C4F2010290427FF420AF012725E775
:10084000002723E702B0BDE8F08F000040F290508F
:10085000C2F2000000687047002804BF0120704702
:10086000F0B581B0044690F83D0028B9002084F826
:100870003C00204600F090F9242084F83D002068D8
:10088000016821F001010160016841F4004101604B
:10089000016821F40041016000F036FB636848F212
:1008A000A16CC0F2010C40F60011C0F23D0163459D
:1008B0003CBF48F28041C0F21E01884202D20120B2
:1008C00001B0F0BD4DF68361C4F21B31A0FB0112F3
:1008D0002168970CD1F804E04FF496762EF03F058E
:1008E00045EA92454D60774348F638160D6AC0F2E6
:1008F0004106A7FB067625F03F07634538BF960CF7
:10090000721C3A430A62CA6948F2A0664CF6FF7745
:10091000C0F20106B34222EA07020BD801385B009D
:10092000B0FBF3F001306FF31F30042898BF0420B0
:100930001BE000BFA768013857B119277B43B0FB04
:10094000F3F001306FF31F3070B100F5804007E025
:1009500003EB4303B0FBF3F001306FF31F3018B12A
:1009600000F5004001E000BF01201043C8610868A5
:10097000D4E9072320F0C0001043184308608868BA
:1009800048F2FF3204F10C0790438CCF1843104318
:10099000A6698860C86820F0FF0038433043C8600B
:1009A000086840F00100086000202021206484F8DD
:1009B0003D10206384F83E0001B0F0BD2DE9F04306
:1009C00083B01E46174689460446FFF73FFF94F85A
:1009D0003D10202924D10546206800BF8169890780
:1009E0001AD5FFF733FF411B20681A29F6D3816916
:1009F0008907F3D500202021206384F83D1084F876
:100A00003E00216C41F02001216484F83C0002206A
:100A100003B0BDE8F08300BF94F83C10012903D176
:100A2000022003B0BDE8F083012184F83C10016886
:100A3000C90703D1016841F001010160016840F27A
:100A4000020821F400610160212184F83D10102189
:100A500084F83E100021216467626685618DC0F2D2
:100A600001082185A8F10211E162E16A0A9E11F5EF
:100A7000803F18BF01291DD1016841F480710160D8
:100A800020464FF0011100223346009500F0BAFED7
:100A900050B120680068C00544BF4FF40070206466
:100AA000012003B0BDE8F0832069B0F5804F07D185
:100AB000FE2015E00829DFD0216B1229DCD0DFE70A
:100AC000062000EAD9102168F030086108F106011B
:100AD000204632462B4600F07BFF0028E0D1FF2065
:100AE000216800EA090008612046414632462B464B
:100AF00000F06EFF0028D3D10020029020684169E9
:100B0000029180690290029806E000BF20463146BB
:100B10002A4600F019FE18BB208D68B320463146E6
:100B20002A4600F0C1FFD8B9606A2168024612F86F
:100B3000013B0B616262628D013A6285228D531E18
:100B400023854F697F07E1D51B04DFD0437802304E
:100B50000B616062608D01386085901E2085D5E74D
:100B6000206C04289CD12068016841F40071016068
:100B7000012003B0BDE8F0832068016841F40071F2
:100B80000160202084F83D00002084F83E0084F8B5
:100B90003C0003B0BDE8F08310B586B0016845F2B3
:100BA0000040C4F2000081424FF00001CDE9041181
:100BB000CDE9021102D006B010BD00BF41F2180409
:100BC000C4F20204216800F5384041F008012160B8
:100BD000216801F0080101910199C02102911221BF
:100BE00003910321059102A9FFF728FD606840F4F5
:100BF00000106060606800F400100190019806B079
:100C000010BD000040F2000040F29051C2F200001E
:100C1000C2F2000100780A681044086070470000C2
:100C200080B542F20000C4F20200016841F01001F8
:100C30000160032000F07AF80F2000F005F800F0C2
:100C400027F8002080BD000070B540F20006C2F217
:100C5000000640F208013278C2F200014FF47A73C4
:100C60000968B3FBF2F20446B1FBF2F1084600F06A
:100C70005FFB0F2C4FF0010508D838B94FF0FF305B
:100C800021460022002500F025F87460284670BD3A
:100C900082B041F21800C4F202000168022241F061
:100CA00001010160016801F00101019101994168B0
:100CB00041F080514160406800F080500090009801
:100CC0000420C4F20100016862F31A61016002B0FD
:100CD0007047000010B54EF60C5CCEF2000CDCF84C
:100CE0000030C3F3022E8EF00704042C28BF042426
:100CF000BEF103034FF0FF3E0EFA04F438BF0023A9
:100D0000A14399400EFA03F39A43114300F00F02F6
:100D100000F160430901043A03F56443624400288A
:100D200048BF02F10C03197010BD00004EF60C51C3
:100D3000CEF200010A684FF6FF031A4060F30A2260
:100D400042F0806040F0FD7008607047002804BFEA
:100D5000012070472DE9F04381B042F20008C4F24F
:100D600002080446D8F800000D4600F00700814252
:100D70000CD9D8F8000020F007002843C8F800007C
:100D8000D8F8000000F00700A8426CD1206841F2BA
:100D900004098107C4F2020917D5410705D5D9F81E
:100DA000001041F4E061C9F80010010705D5D9F839
:100DB000001041F46051C9F80010D9F80010A26881
:100DC00021F0F0011143C9F80010C00742D1D8F852
:100DD000000000F0070085420CD2D8F8000020F097
:100DE00007002843C8F80000D8F8000000F007000A
:100DF000A84238D12068410707D5D9F80010E26829
:100E000021F4E0611143C9F80010000708D5D9F8B2
:100E10000000216920F4605040EAC100C9F80000D8
:100E2000D9F8002002F00C00082841F20020C0F29E
:100E30007A004DD143F2B003C2F38341C0F6000300
:100E4000595CD20338D440F60010C0F23D0048434C
:100E50003EE000BF606859F8041C022808D0012851
:100E600026D1890306D4012001B0BDE8F08300BF7C
:100E70008901F8D5D9F8001021F003010843C9F819
:100E80000000FFF7E3FC064641F28837D9F800007E
:100E9000616800F00C00B0EB810F98D0FFF7D6FC32
:100EA000801BB842F2D9032001B0BDE8F08300BF37
:100EB0008907D8D5DEE700BFD9F8002042F6B42371
:100EC000C2F34042C0F600039A5C4843B0FBF2F024
:100ED000D9F8001042F69C22C1F30311C0F60002BB
:100EE000515C40F2080220FA01F140F20400C2F223
:100EF00000000068C2F200021160FFF7A5FE0020AA
:100F000001B0BDE8F083000040F2080041F20401A6
:100F1000C2F20000C4F202010068096842F6AC2285
:100F2000C1F30221C0F60002515CC84070470000C6
:100F3000002804BF012070472DE9F04182B004462B
:100F4000007841F20006C007C4F202060CD07068B7
:100F500000F00C00042840F081803068800303D545
:100F60006068002800F04681207880071BD57068F3
:100F700010F00C0F09D0706800F00C00082840F049
:100F800087807068C00300F183803068800703D5D4
:100F90002069012840F02E813068616920F0F80056
:100FA00040EAC10030602078000713D42078400761
:100FB0002CD4E569002D00F01881706800F00C0059
:100FC000082840F0A780012D40F00481012002B0E4
:100FD000BDE8F081A069002800F084800020C4F200
:100FE00042200121C0F88014FFF730FC054600BF05
:100FF000706A800700F1B280FFF728FC401B0228CE
:10100000F6D9032002B0BDE8F08100BFF0695FEAC5
:10101000C00808D4F06940F08050F061F06900F039
:1010200080500090009847F20007C4F2000738682B
:10103000C00549D4386840F480703860FFF706FC7A
:10104000054600BF3868C0053ED4FFF7FFFB401BD4
:101050006428F7D9032002B0BDE8F081706800F081
:101060000C00082803D17068C0033FF576AF6168B3
:101070003068002900F00C81B1F5A02F00F000814C
:10108000B1F5803F40F01A8140F480301CE100BF90
:101090002069002840F20000C4F2422000F088805D
:1010A00001210160FFF7D2FB054600BF30688007D1
:1010B0003FF572AFFFF7CAFB401B0228F6D90320A9
:1010C00002B0BDE8F08100BFE168306A002900F09D
:1010D0009D80052900F09280012940F0AF8040F00A
:1010E0000100B1E00020C4F242200021C0F88014C9
:1010F000FFF7ACFB054600BF706A80077FF556AF6F
:10110000FFF7A4FB401B0228F6D9032002B0BDE87C
:10111000F08100BF0027C4F2422700203866FFF7A5
:1011200095FB022D05460DD13068800140F1DE802F
:10113000FFF78CFB401B02284FF00300F4D902B0EC
:10114000BDE8F081306880014FD5FFF77FFB401B81
:1011500002284FF00300F5D9F1E700BF40F2080084
:10116000C2F20000006844F6D351C1F26201A0FB54
:101170000101480A019000BF00BF0198411E0028EC
:1011800001913FF413AF00BF0198411E0028019167
:101190003FF40CAF00BF0198411E002801913FF4BD
:1011A00005AF00BF0198411E00280191E4D1FDE682
:1011B00000210160FFF74AFB054600BF3068800749
:1011C0007FF5F1AEFFF742FB401B02284FF0030012
:1011D000F4D9B4E77068216A00F480328A4209D1F8
:1011E000616A00F47010884204D1002002B0BDE8AA
:1011F000F08100BF012002B0BDE8F08140F00400A2
:101200003062306A40F001001EE000BF20F00100B3
:101210003062306A20F004003062FFF717FB0546A9
:1012200041F28837306A800720D5FFF70FFB401B5B
:10123000B8424FF00300F5D981E700BF20F001006C
:101240003062306A20F004003062FFF7FFFA054692
:1012500041F28837306A800708D4FFF7F7FA401B5D
:10126000B842F7D9032002B0BDE8F081B8F1000F11
:101270003FF59FAEF06920F08050F06199E600BF25
:1012800040F480203060306840F480301CE000BFC3
:1012900020F480303060306820F480203060FFF728
:1012A000D5FA0546306880037FF55EAEFFF7CEFACB
:1012B000401B64284FF00300F4D940E720F480304D
:1012C0003060306820F480203060FFF7BFFA0546B8
:1012D000306880033FF548AEFFF7B8FA401B64283A
:1012E000F6D9032002B0BDE8F08100BF206AB0F556
:1012F000803F05D17168A26821F40031114371600B
:101300007168626A21F4741111430843706001200E
:101310003866FFF79BFA0446306880013FF565AFF9
:10132000FFF794FA001B02284FF00300F4D906E7F8
:10133000411E0020B0EB116F1CBF012070474EF220
:101340001002CEF2000251604EF62351CEF200019F
:10135000F0230B70072190601160704790F83C20DB
:10136000012A4FF0020236D010B580F83D20026805
:10137000D2F804E0D2F808C00C682EF070032343C2
:1013800040F2FF74C4F20004A24253600ADCB2F1DE
:10139000804F13D040F20043C4F200039A420DD0B4
:1013A00011E000BF42F60043C4F201039A4205D0A7
:1013B00040F60003C4F200039A4204D149682CF0BD
:1013C0008003194391600121002280F83D1080F8CC
:1013D0003C20BDE81040104670470000002804BFC4
:1013E0000120704710B590F83D1031B9002180F808
:1013F0003C10044600F070F82046022180F83D10B1
:10140000016840F2FF740B68C4F2000442F6004C1D
:10141000A142C4F2010C15DCB1F1804F1AD040F2A8
:101420000042C4F20002914214D0A14218DCB1F192
:10143000804F1DD040F20042C4F20002914217D00A
:101440001AE000BF614505D040F60002C4F2000278
:101450009142EAD1826823F070031343A142E6DD92
:10146000614505D040F60002C4F20002914203D16A
:10147000026923F440731343846923F08002D0F897
:1014800004E0C368224361450A60CB62C1F828E0EA
:1014900002D14269CCF8302001224A610B69DB0796
:1014A00003D00B6923F001030B6180F8462080F81C
:1014B0003E2080F83F2080F8402080F8412080F8CE
:1014C000422080F8432080F8442080F8452080F8AE
:1014D0003D20002010BD000080B586B000680021CE
:1014E000B0F1804FCDE904110391029102D006B012
:1014F00080BD00BF41F21800C4F20200426842F011
:1015000001024260426802F001020192019A0268FF
:1015100042F004020260006800F0040001900198AB
:101520000120CDE9020140F600000491C4F201005F
:1015300002A9FFF783F806B080BD000090F83D10C7
:1015400001291CBF01207047022180F83D1000686E
:1015500040F2FF71C4F20001884209DCB0F1804F13
:1015600012D040F20041C4F2000188420CD012E0D7
:1015700042F60041C4F20101884205D040F6000164
:10158000C4F20001884206D1816801F007010629F2
:1015900004BF00207047016841F001010160002094
:1015A0007047000090F83C20012A4FF002026CD0F6
:1015B00080B580F83D20D0F800C04FF67772DCF897
:1015C000083023EA0202CCF808200B684F2B29DCF4
:1015D0001F2B45DD202B46D0302B44D0402B40F034
:1015E000AF80D1F804E0C968DCF82030DCF82020B6
:1015F00022F00102CCF82020DCF8182022F0F002C2
:1016000042EA011123F00A0242EA0E02CCF8181055
:10161000CCF82020DCF8081041F0470121F030011F
:1016200028E000BF6F2B33DDB3F5005F74D0B3F556
:10163000805F21D0702B40F08380D1E901E3C9683D
:10164000DCF8082043EA0E0322F47F4243EA01213A
:101650001143CCF80810DCF8081041F0770109E0DC
:101660000BB1102B6CD1DCF8081021F0700119437C
:1016700041F00701CCF808100022012180F83D104C
:10168000002180F83C10BDE880401046704700BF44
:10169000502B21D0602B53D1D1F804E0C968DCF87D
:1016A0002030DCF8202022F01002CCF82020DCF8DA
:1016B000182022F4704242EA013123F0A00242EAEB
:1016C0000E12CCF81810CCF82020DCF8081041F0ED
:1016D000670121F01001CDE7D1F804E0C968DCF81A
:1016E0002030DCF8202022F00102CCF82020DCF8A9
:1016F000182022F0F00242EA011123F00A0242EA25
:101700000E02CCF81810CCF82020DCF8081041F0BC
:10171000570121F02001ADE7D1E901E3C968DCF808
:10172000082043EA0E0322F47F4243EA01211143D9
:10173000CCF80810DCF8081041F480419AE700BFAB
:1017400001229AE7FEE7000070B50368044653F8EB
:10175000140F400711D40E46481C29D086BB00BF89
:101760001868400527D4FFF771F8236853F8140F61
:10177000400737D518684007F2D5002070BD00BF7C
:1017800018684007F9D41868400514D41868400751
:10179000F3D4186840050ED418684007EDD41868D3
:1017A000400508D4186840074FF0000048BF70BDDE
:1017B00018684005E4D56FF480601860042012E0DA
:1017C000154603E053F8140F4007D6D418684005B7
:1017D000F1D4FFF73BF8401B2368B042F2D95869B7
:1017E0004007EFD4202000212022216384F83D20EF
:1017F00084F83E10226C10432064012084F83C10D1
:1018000070BD00002DE9F041054600681E461446F3
:1018100001F47F0201338FB242D0DDF81880B2F5B7
:10182000803F40F0878040693840C01BB0FA80F0AC
:101830004009844240F0C8804EB924E040693840F5
:10184000C01BB0FA80F04009844240F0BD80FEF732
:10185000FDFFA0EB08012868B142EFD9416939408A
:10186000C91BB1FA81F149098C42E7D19BE000BF65
:1018700040693840C01BB0FA80F0400984424FF004
:10188000000040F0A280FEF7E1FF2868416939407E
:10189000C91BB1FA81F149098C42E9D183E000BF4B
:1018A000B2F5803F24D100BF41693940C91BB1FA6C
:1018B00081F149098C4240F0878041693940C91B58
:1018C000B1FA81F149098C4240F07E80416939408A
:1018D000C91BB1FA81F149098C4275D1416939407E
:1018E000C91BB1FA81F149098C42DDD06CE000BF1F
:1018F00081693940C91BB1FA81F149098C4263D130
:1019000081693940C91BB1FA81F149098C425BD127
:1019100081693940C91BB1FA81F149098C4253D11F
:1019200081693940C91BB1FA81F149098C42DFD084
:101930004AE000BF80693840C01BB0FA80F040091F
:10194000844241D146B923E080693840C01BB0FAD7
:1019500080F04009844237D1FEF778FFA0EB080100
:101960002868B142F0D981693940C91BB1FA81F1C7
:1019700049098C42E8D116E080693840C01BB0FAB2
:1019800080F0400984424FF0000018BFBDE8F081AC
:10199000FEF75CFF286881693940C91BB1FA81F103
:1019A00049098C42E8D100202021286385F83D10A8
:1019B00085F83E00296C41F02001296485F83C003F
:1019C0000120BDE8F08100BF0020BDE8F0810000EB
:1019D000F0B581B0044600681D4643698FB203EA42
:1019E0000701B94202D1002001B0F0BD416916469D
:1019F00001323CD0490512D47EB300BFFEF726FF6A
:101A0000411B2068B14203D941693940B9422BD109
:101A100041693940B942E6D041694905EED50168CE
:101A200041F4007101606FF4806141610420002184
:101A30002022216384F83D2084F83E10226C10435C
:101A4000206484F83C10012001B0F0BD41693940A8
:101A5000B942C8D041694905E1D4FEF7F7FE2068D4
:101A600041693940B942F1D02020E0E74169490598
:101A7000D5D441693940B942B5D041694905CED480
:101A800041693940B942AED041694905C7D441697D
:101A90003940B942A7D041694905C0D441693940AC
:101AA000B942E3D19FE7000070B50368044653F8DC
:101AB000140F000611D40E46481C29D086BB00BF67
:101AC0001868400527D4FEF7C1FE236853F8140FA9
:101AD000000637D518680006F2D5002070BD00BF9B
:101AE00018680006F9D41868400514D41868000670
:101AF000F3D4186840050ED418680006EDD41868B1
:101B0000400508D4186800064FF0000048BF70BDBB
:101B100018684005E4D56FF480601860042012E076
:101B2000154603E053F8140F0006D6D41868400594
:101B3000F1D4FEF78BFE401B2368B042F2D95869FE
:101B40000006EFD4202000212022216384F83D20CC
:101B500084F83E10226C10432064012084F83C106D
:101B600070BD000083B041F21800C4F202000168A9
:101B700041F020010160016801F020010291029909
:101B8000016841F004010160016801F00401019164
:101B90000199016841F008010160006800F0080047
:101BA0000090009803B0704780B540F2F44045F2D1
:101BB0000041C2F20000C4F2000148F2A06200231A
:101BC0004FF4804CC0F2010280E80E00C0E9033CF3
:101BD000C0E90533C0E90733FEF73EFE002808BF21
:101BE00080BDBDE88040FEF70FBD000010B586B097
:101BF00040F248500024C2F200004FF080414FF6FE
:101C0000FF72CDE90044C0E90014C0E9024204615A
:101C10008461FFF7E3FB002818BFFEF7F5FC4FF4E3
:101C20000050CDE9020440F24850C2F2000002A97F
:101C3000CDE90444FFF7B6FC002818BFFEF7E4FC2A
:101C40000020CDE9000040F24850C2F20000694691
:101C5000FFF784FB002818BFFEF7D6FC06B010BDC6
:101C6000FEE70000FEE700002DE9F04381B040F2FE
:101C7000704440F2F445C2F20004AE20C2F2000506
:101C800060704FF0FF3628467821224602230096E6
:101C9000FEF794FE4FF020082846782122460223C2
:101CA00084F801800096FEF789FE102728467821E7
:101CB0002246022367700096FEF780FEB020607017
:101CC00028467821224602230096FEF777FEC82098
:101CD000607028467821224602230096FEF76EFEA9
:101CE0004FF00009284678212246022384F801900B
:101CF0000096FEF763FE284678212246022367708D
:101D00000096FEF75BFE4020607028467821224650
:101D100002230096FEF752FE81206070284678214B
:101D2000224602230096FEF749FEDF206070284617
:101D30007821224602230096FEF740FEA120607023
:101D400028467821224602230096FEF737FEA62079
:101D5000607028467821224602230096FEF72EFE68
:101D6000A820607028467821224602230096FEF7BC
:101D700025FE3F20607028467821224602230096E7
:101D8000FEF71CFEA420607028467821224602231C
:101D90000096FEF713FED320607028467821224675
:101DA00002230096FEF70AFE2846782122460223E7
:101DB00084F801900096FEF701FED5206070284659
:101DC0007821224602230096FEF7F8FDF02060708D
:101DD00028467821224602230096FEF7EFFDD920FF
:101DE000607028467821224602230096FEF7E6FD21
:101DF0002220607028467821224602230096FEF7B2
:101E0000DDFDDA2060702846782122460223009604
:101E1000FEF7D4FD12206070284678212246022366
:101E20000096FEF7CBFDDB20607028467821224625
:101E300002230096FEF7C2FD28467821224602239F
:101E400084F801800096FEF7B9FD8D206070284669
:101E50007821224602230096FEF7B0FD1420607020
:101E600028467821224602230096FEF7A7FD40F27D
:101E70007000C2F200004FF48061FEF7B4FA00F087
:101E800039FCAF2060702846782122460223009654
:101E9000FEF794FD01B0BDE8F083000080B540F28C
:101EA0007000C2F200004FF48061FEF79CFA80BD22
:101EB0002DE9F04F87B092F800900492B9F1000F2D
:101EC000039100F097800446581C029018785978C6
:101ED0000730C00848430430049D9A465FFA80FBEF
:101EE0004FF000081AE000BF221D069CBA463D785C
:101EF0007B780399109FE0B2CDE9005700F0FEF81F
:101F00000298B044049A1FFA88F1007812F8019000
:101F10000444B9F1000F02EB01056BD04FFA89F1CF
:101F2000B1F1FF3FCDE9051408DD012657469AF8C7
:101F300008A0BAF1000F25D131E000BF09F0E000A0
:101F4000C02807D1022657469AF808A0BAF1000F18
:101F500018D124E009F0F000E02807D10326574605
:101F60009AF808A0BAF1000F0CD118E009F0F800B7
:101F7000F0283FD1042657469AF808A0BAF1000F7E
:101F80000DD000BF7C6800BF284621463246FEF7D0
:101F9000B9F90028A8D0BAF1010A5C44F4D1F86874
:101FA00005994268BA46002916D406784378A9F103
:101FB0002001F01DC0085943069C01FB0022039933
:101FC000109FE0B2CDE9006700F098F8DAF80C0055
:101FD0000126013095E700BF069C057843780399F8
:101FE000109FE0B2CDE9005700F088F8DAF80C0055
:101FF000013086E707B0BDE8F08F00002DE9F04F13
:1020000001F0070CDDF824E003EB0C04092C4FEA87
:10201000D10847D345B2002D20D43F291ED8CCF19A
:10202000080BFF2323FA0BF940F27003C2F20003FE
:1020300002FA0CF603EBC813BEF1000F18BFF6430B
:1020400013F800A046EA09070AEA07096FF0FF073C
:1020500047FA0BF73E4046EA09061E54002D4BD4C2
:10206000372949D804F1F703CCF10807FA40DBB26D
:102070004FF4FF7707FA03F340F2700708F101010C
:10208000C2F2000707EBC111BEF1000F18BFD24327
:102090000F5C42EA030637409A433A430A54BDE8CC
:1020A000F08F00BF43B2002B26D43F2988BFBDE884
:1020B000F08F611EC9B24FF4FF7340F2700603FA4D
:1020C00001F1CCF10803FF27C2F2000602FA0CF27C
:1020D000DF4006EBC816BEF1000F18BFD24317430E
:1020E000355C0F432F406FF0FF0545FA03F323EAF9
:1020F0000101114039433154BDE8F08F2DE9F04F13
:1021000097B0002B0692129100F0F082DDE92029B1
:102110008246B9F1000F48461D464FEAD20318BF68
:102120004FF0FF30082A02F00708169004D2B8F1E9
:10213000000F40F0C082D9E21298CDF80C8010F068
:102140000708A3F10100059003F00300089005EBD8
:10215000450010904FEA850002931190079500F01A
:10216000C781C8F10801FF20C84014906FF0FF003C
:1021700008411390A8F101000F91C0B24FF4FF7114
:1021800001FA00F00E90C0430D9068000A901C20E8
:1021900000EAD200404200210C900995CDF854800D
:1021A000CDF810A00FE000BF10980B9901301090EF
:1021B0000A98013101300A900998A94200F1010002
:1021C000099000F06F820AEB01000B9141B240F2DE
:1021D000700E0029C2F2000EE6D405995FFA80FB6A
:1021E000032905D200240898002840F0DD80DBE7B1
:1021F000069C032508E000BF0C98043528440328FA
:102200001198044400F0C880129800EBC50AAAF1A6
:102210001800C1B23F2930D80B98CA0814F80090B2
:1022200015980EEBC21309FA00F61698149F464053
:1022300013F80BE0139846EA070C0EEA0C0740F27D
:10224000700E0640DDF85480C2F2000E3743372985
:1022500003F80B7011D8511C0F9A0EEBC11129FA1B
:1022600002F0169A0E9B504011F80B2003431A40BF
:102270000D9B1840104301F80B00AAF11000C1B2E9
:102280003F2929D80998CA0814F800C016980CFAF2
:1022900008F343400EEBC217149817F80B6018436D
:1022A0003040139EDDF8548033401843372907F837
:1022B0000B0011D80F99501C169A2CFA01F10EEB55
:1022C000C0100E9B514010F80B200B431A400D9B81
:1022D0001940114300F80B10AAF10800C1B23F29C0
:1022E00029D80A98CA0814F800C016980CFA08F3FE
:1022F00043400EEBC217149817F80B601843304098
:10230000139EDDF8548033401843372907F80B003B
:1023100011D80F99501C169A2CFA01F10EEBC0102F
:102320000E9B514010F80B200B431A400D9B194097
:10233000114300F80B105FFA8AF13F293FF65CAFBA
:102340001098CA0814F800C016980CFA08F3434015
:102350000EEBC217149817F80B6018433040139E09
:10236000DDF8548033401843372907F80B003FF657
:1023700043AF0F99501C169A2CFA01F10EEBC010C6
:102380000E9B514010F80B200B431A400D9B194037
:10239000114300F80B102FE7EC1EDDF810A0079D8D
:1023A000089800283FF400AF1298069900EBC4008B
:1023B0000B9AC0B23F2801EB020C2BD804FB05F1AD
:1023C0001CF80190C208169909FA08F30EEBC2171F
:1023D000149D4B4017F80B6013991D432E40079D29
:1023E0000B40DDF854803343372807F80B3011D801
:1023F000501C0F9A0EEBC01029FA02F1169A0E9B90
:10240000514010F80B200B431A400D9B194011430B
:1024100000F80B10089801283FF4C6AE1298611C12
:1024200000EBC100C0B23F282AD869431CF80190D4
:10243000C208169909FA08F30EEBC217149D4B4017
:1024400017F80B6013991D432E40079D0B40DDF8D4
:1024500054803343372807F80B3011D8501C0F9A9B
:102460000EEBC01029FA02F1169A0E9B514010F89B
:102470000B200B431A400D9B1940114300F80B1021
:10248000089802283FF490AE1298A11C00EBC100FE
:10249000C0B23F283FF688AE69431CF80110169F72
:1024A000C20801FA08F37B400EEBC217149D17F81F
:1024B0000B60139C1D432E40079D2340DDF8548084
:1024C0003343372807F80B303FF66EAE501C0F9A97
:1024D0000EEBC010D140169A0E9B514010F80B2005
:1024E0000B431A400D9B1940114300F80B105BE69B
:1024F0001C2000EAD2004FEA450EC0F1000C002477
:10250000A9460AE01098013401300EF1010EAC42E8
:1025100009F10109109000F0C5800AEB040041B2F6
:102520000029EFD40599C3B2032905D200200899E8
:1025300000296BD1E6E700BF0698032207E000BF41
:1025400004320CEB020103291199084458D0129966
:1025500001EBC201A1F11805EEB23F2E0ED9A1F197
:102560001005EEB23F2E1AD9A1F10805EEB23F2EAA
:1025700027D9CDB23F2DE3D833E000BF065D169FCB
:1025800005F0F8057E4040F27007C2F2000707EB45
:102590000515EE54A1F11005EEB23F2EE4D810F867
:1025A0000960169F05F0F8057E4040F27007C2F200
:1025B000000707EB0515EE54A1F10805EEB23F2E1A
:1025C000D7D810F80E60169F05F0F8057E4040F24F
:1025D0007007C2F2000707EB0515EE54CDB23F2D90
:1025E000AED8109D169E455D01F0F801754040F291
:1025F0007006C2F2000606EB0111CD54A0E700BF41
:10260000079DD01E089900293FF47CAF129901EB79
:10261000C002D1B23F29069921440ED8079D169ECB
:1026200045434D5D02F0F802754040F27006C2F27B
:10263000000606EB0212D554079D089A012A3FF4C2
:1026400061AF129A451C02EBC502D6B23F2E0DD8DF
:10265000079E02F0F80275434D5D169E754040F2EC
:102660007006C2F2000606EB0212D554089A079DC6
:10267000022A3FF447AF821C129800EBC200C5B299
:102680003F2D079D3FF63EAF6A43895C169A00F0E6
:10269000F800514040F27002C2F2000202EB00105A
:1026A000C1542FE7DDF80C80DDE92029029BB8F149
:1026B000000F1BD0D5B1129902F0F8000144069822
:1026C000CEB203FB05046D424FF0FF30471C20449F
:1026D00042780AEB0700C0B231464346CDF800907D
:1026E000FFF78CFCE81901303846EFD117B0BDE890
:1026F000F08F00002DE9F04F81B040F27248C2F235
:1027000000084020454640F2704740F2F44605F884
:10271000010BC2F20007B020C2F2000678704FF041
:10272000FF34304678213A4602230094FEF746F9FA
:102730004FF0000A304678213A46022387F801A07C
:102740000094FEF73BF94FF0100B304678213A46E3
:10275000022387F801B00094FEF730F940F27009C7
:10276000C2F20009284649468022FDF7F7FD3046AF
:102770007821424681230094FEF720F9B120787039
:10278000304678213A4602230094FEF717F9304686
:1027900078213A46022387F801A00094FEF70EF94B
:1027A000304678213A46022387F801B00094FEF7BC
:1027B00005F909F1800128468022FDF7CFFD30465A
:1027C0007821424681230094FEF7F8F8B220787011
:1027D000304678213A4602230094FEF7EFF830465F
:1027E00078213A46022387F801A00094FEF7E6F824
:1027F000304678213A46022387F801B00094FEF76C
:10280000DDF809F5807128468022FDF7A7FD3046E6
:102810007821424681230094FEF7D0F8B3207870E7
:10282000304678213A4602230094FEF7C7F8304636
:1028300078213A46022387F801A00094FEF7BEF8FB
:10284000304678213A46022387F801B00094FEF71B
:10285000B5F809F5C07128468022FDF77FFD3046A6
:102860007821424681230094FEF7A8F8B4207870BE
:10287000304678213A4602230094FEF79FF830460E
:1028800078213A46022387F801A00094FEF796F8D3
:10289000304678213A46022387F801B00094FEF7CB
:1028A0008DF809F5007128468022FDF757FD304666
:1028B0007821424681230094FEF780F8B520787095
:1028C000304678213A4602230094FEF777F83046E6
:1028D00078213A46022387F801A00094FEF76EF8AB
:1028E000304678213A46022387F801B00094FEF77B
:1028F00065F809F5207128468022FDF72FFD304646
:102900007821424681230094FEF758F8B62078706B
:10291000304678213A4602230094FEF74FF83046BD
:1029200078213A46022387F801A00094FEF746F882
:10293000304678213A46022387F801B00094FEF72A
:102940003DF809F5407128468022FDF707FD304625
:102950007821424681230094FEF730F8B720787042
:10296000304678213A4602230094FEF727F8304695
:1029700078213A46022387F801A00094FEF71EF85A
:10298000304678213A46022387F801B00094FEF7DA
:1029900015F809F5607128468022FDF7DFFC304606
:1029A0007821424681230094FEF708F801B0BDE883
:1029B000F08F00007047000070470000FEF722B95A
:1029C00070470000FEE7000090B0FEF729F90024F0
:1029D0000120CDE90B44CDE9094406904FF4803144
:1029E0000A90022506A8CDE90714CDE90D510F94F0
:1029F000FEF79EFA20B1EFF3108072B6FEE700BF3B
:102A00000F20CDE90105802003904FF48060CDE9CF
:102A1000040401A80021FEF799F928B1EFF3108012
:102A200072B600BFFEE700BFFFF79CF8FFF7DEF8C5
:102A3000FFF7BAF81420FDF7EDFDFFF715F940F2A6
:102A40004858C2F200084046FEF778FD43F2C0073E
:102A500000240FA506AEC0F600070A94CDE908448D
:102A6000CDE90644FFF71AFAD8F800002946426A71
:102A70003046FDF7C3FB0020002132463B46009460
:102A8000FFF716FAFFF736FE6420FDF7C3FDE9E70E
:102A9000636F756E7465723A256400000000000073
:102AA00000000000010203040607080900000000FE
:102AB000010203040102000010080000C02A0008FF
:102AC0000000000000000000000000000000000006
:102AD000000000F80000000000000033300000009B
:102AE00000100C06100C06000000000000000000A2
:102AF00040C07840C0784000043F04043F04040014
:102B0000007088FC08300000001820FF211E000023
:102B1000F008F000E018000000211C031E211E0038
:102B200000F00888700000001E21232419272110BE
:102B300010160E0000000000000000000000000061
:102B4000000000E018040200000000071820400008
:102B500000020418E00000000040201807000000F8
:102B6000404080F0804040000202010F010202005C
:102B7000000000F0000000000101011F0101010040
:102B8000000000000000000080B0700000000000A5
:102B9000000000000000000000010101010101012E
:102BA00000000000000000000030300000000000C5
:102BB000000000008060180400601806010000009A
:102BC00000E010080810E000000F102020100F0097
:102BD000001010F8000000000020203F202000001E
:102BE0000070080808887000003028242221300076
:102BF00000300888884830000018202020110E007E
:102C00000000C02010F8000000070424243F240026
:102C100000F80888880808000019212020110E00FB
:102C200000E0108888180000000F112020110E000D
:102C300000380808C83808000000003F0000000005
:102C40000070880808887000001C222121221C00C6
:102C500000E010080810E0000000312222110F00EF
:102C6000000000C0C0000000000000303000000084
:102C700000000080000000000000806000000000F4
:102C8000000080402010080000010204081020000D
:102C90004040404040404000040404040404040058
:102CA00000081020408000000020100804020100ED
:102CB000007048080808F0000000003036010000ED
:102CC000C030C828E810E0000718272423140B00A0
:102CD0000000C038E0000000203C2302022738201A
:102CE00008F8888888700000203F202020110E00FE
:102CF000C0300808080838000718202020100800F5
:102D000008F808080810E000203F202020100F00DD
:102D100008F88888E8081000203F202023201800A9
:102D200008F88888E8081000203F20000300000011
:102D3000C03008080838000007182020221E0200B2
:102D400008F808000008F808203F210101213F2071
:102D5000000808F8080800000020203F202000009C
:102D600000000808F8080800C08080807F0000008C
:102D700008F888C028180800203F200126382000C5
:102D800008F8080000000000203F2020202030002C
:102D900008F8F800F8F80800203F003F003F200046
:102DA00008F830C00008F808203F200007183F004E
:102DB000E01008080810E0000F10202020100F007D
:102DC00008F808080808F000203F21010101000070
:102DD000E01008080810E0000F18242438504F00B5
:102DE00008F8888888887000203F2000030C302075
:102DF00000708808080838000038202121221C00B3
:102E0000180808F8080818000000203F20000000FB
:102E100008F808000008F808001F202020201F00E4
:102E20000878880000C83808000007380E01000044
:102E3000F80800F80008F800033C0700073C03000E
:102E4000081868808068180820302C03032C302074
:102E50000838C800C83808000000203F20000000E3
:102E600010080808C838080020382621202018003B
:102E7000000000FE020202000000007F404040000F
:102E8000000C30C000000000000000010638C00047
:102E900000020202FE000000004040407F000000EF
:102EA0000000040202020400000000000000000014
:102EB0000000000000000000808080808080808012
:102EC00000020204000000000000000000000000FA
:102ED00000008080808000000019242222223F20F0
:102EE00008F8008080000000003F112020110E0033
:102EF0000000008080800000000E112020201100C2
:102F0000000000808088F800000E112020103F2073
:102F10000000808080800000001F222222221300F7
:102F2000008080F0888888180020203F2020000042
:102F30000000808080808000006B949494936000F7
:102F400008F8008080800000203F210000203F2002
:102F500000809898000000000020203F2020000002
:102F6000000000809898000000C08080807F0000F2
:102F700008F8000080808000203F24022D302000CF
:102F8000000808F8000000000020203F202000007A
:102F90008080808080808000203F20003F20003F94
:102FA0008080008080800000203F210000203F20A2
:102FB0000000808080800000001F202020201F0053
:102FC000808000808000000080FFA12020110E0082
:102FD0000000008080808000000E112020A0FF8073
:102FE000808080008080800020203F212000010020
:102FF0000000808080808000003324242424190075
:10300000008080E0808000000000001F2020000081
:103010008080000000808000001F202020103F20C2
:10302000808080000080808000010E300806010052
:1030300080800080008080800F300C030C300F00F7
:1030400000808000808080000020312E0E31200022
:10305000808080000080808080818E701806010052
:1030600000808080808080000021302C2221300070
:1030700000000000807C020200000000003F404091
:1030800000000000FF00000000000000FF00000042
:103090000002027C800000000040403F0000000071
:1030A000000601010202040400000000000000000C
:1030B00002030405060708090A0B0C0D0E0F101079
:1030C00010100000D030000804000000B82A0008EA
:1030D000E6B3A2001060020CC000F8888888FF8860
:1030E00088A8180004047C0380601F80432C1028EB
:1030F00046818000E789B900403C10FF101040482D
:1031000048487F48C8484000020602FF010100020B
:103110000A1242827F020200E5BE8B00001088C4C2
:103120003310545454FF54547C101000020100FF1B
:103130000010121212FF121212100000E58AA800ED
:103140004044C4444444401010FF101010F00000EC
:10315000103C131014B840300E014080403F000076
:10316000803100080000002010000000500100081D
:103170009031000810000020880B0000700100084A
:10318000010000001000000000127A0000000000A2
:04000005080000ED02
:00000001FF
