:020000040800F2
:1000000078070020B5010008311B0008751A0008A8
:100010002D1B0008710200080920000800000000E4
:10002000000000000000000000000000391B000874
:100030008D02000800000000351B00083D1B000871
:10004000CF010008CF010008CF010008CF01000850
:10005000CF010008CF010008CF010008CF01000840
:10006000CF010008CF010008CF010008CF01000830
:10007000CF010008CF010008CF010008CF01000820
:100080007502000881020008CF010008CF010008B6
:10009000CF010008CF010008CF010008CF01000800
:1000A000CF010008CF010008CF010008CF010008F0
:1000B000CF010008CF010008CF010008CF010008E0
:1000C000CF010008CF010008CF010008CF010008D0
:1000D000CF010008CF010008FD1F0008CF01000874
:1000E000CF010008CF010008CF01000800F002F89E
:1000F00000F050F814A696E8000CB244B344DA4578
:1001000001D100F047F8BAE80F000FA696E83000DA
:10011000A5EB040504EB0607AAEB0704A7F101070A
:100120004FEA15154FEA3414A4F10104AC4201D38F
:1001300000F030F813F0010F18BFFB1A43F0010371
:1001400000F001F8DBE718475C1F00007C1F00008F
:10015000103A24BF78C878C1FAD8520724BF30C8F3
:1001600030C144BF04680C60704700007047000055
:100170000023002400250026103A28BF78C1FBD8B0
:10018000520728BF30C148BF0B6070471FB51FBD65
:1001900010B510BD00F031F81146FFF7F7FF01F080
:1001A00035FF00F04FF803B4FFF7F2FF03BC00F097
:1001B00057F800000948804709480047FEE7FEE776
:1001C000FEE7FEE7FEE7FEE7FEE7FEE7FEE7FEE707
:1001D00004480549054A064B70470000411B0008CA
:1001E000ED00000878010020780700207803002047
:1001F00078030020704770477047754600F02CF870
:10020000AE4605006946534620F00700854618B003
:1002100020B5FFF7DDFFBDE820404FF000064FF0AE
:1002200000074FF000084FF0000BAC46ACE8C009E7
:10023000ACE8C009ACE8C009ACE8C00921F007018E
:100240008D46704710B50446AFF300802046BDE8E8
:100250001040FFF7A8BF00000048704710000020C2
:1002600001491820ABBEFEE72600020070470000DF
:10027000FEE7000040F27000C2F2000000F08EB80D
:1002800040F2B400C2F2000000F088B870470000ED
:10029000EFF3108072B600BFFEE70000014690F851
:1002A0002100022816D10868D1E90FC3026822F0A4
:1002B0000E020260026822F001020260012000FAD0
:1002C00003F2CCF8042081F821000020002281F8FC
:1002D00020207047042088630120002281F820201C
:1002E0007047000090F82110022923D1026840F2E3
:1002F000040C1168C4F2020C21F00E0111601368A5
:100300002F21C4F202018A4223F00103136015DD9C
:100310003023C4F202039A421CD04423C4F20203E5
:100320009A421BD05823C4F202039A421CD14FF4C4
:10033000803321E004218163012070470823C4F247
:1003400002039A420ED01C23C4F202039A420BD13C
:10035000102311E04FF480730EE000BF4FF4805380
:100360000AE000BF012307E00CF168014FF0807341
:100370008A4208BF4FF480130121CCF8003080F886
:100380002110416B0022002980F8202004BF0020AA
:10039000704780B58847002080BD000010B5D0E9C7
:1003A0000FCE0168DCF800300A6823FA0EF35C0710
:1003B0002AD512F0040427D00A68920603D40A68EA
:1003C00022F004020A602F22C4F20202914240F29B
:1003D0000402C4F202025BDD3023C4F2020399423C
:1003E00072D04423C4F20203994273D05823C4F25A
:1003F0000203994240F07A804FF480231360C16A6F
:10040000002940F098806FE09C0727D512F0020485
:1004100024D00A68920606D40A6822F00A020A600A
:10042000012280F821202F22C4F20202914240F2E0
:100430000402C4F202023BDD3023C4F202039942FB
:1004400060D04423C4F2020399425FD05823C4F21F
:100450000203994260D14FF4003365E01B0743D596
:1004600012F0080208BF10BD0A6822F00E020A60EE
:10047000012101FA0EF2CCF80420816380F82110EA
:10048000016B0022002980F8202054D12CE000BF0D
:100490000823C4F20203994222D01C23C4F20203AF
:1004A000994223D140231360C16A002943D11BE044
:1004B0000823C4F2020399422CD01C23C4F2020385
:1004C000994229D120232FE04FF480631360C16A41
:1004D00089BB09E04FF480431360C16A59BB03E054
:1004E00004231360C16A31BB10BD00BF02F1680470
:1004F0004FF08063A14208BF4FF480031360C16ACC
:10050000C9B9F1E74FF400730EE000BF4FF4005398
:100510000AE000BF022307E002F168044FF0007315
:10052000A14208BF4FF400131360816A0022002922
:1005300080F82020D8D0BDE81040084701460028A8
:100540004FF0010008BF70472DE9F043D1F800C01B
:100550004FF6F873CBF6FD734CF6CD426344CCF600
:10056000CC42A3FB02236FF0030202EA93020023B2
:10057000C4F2020301F10C08C1E90F320222D1E9F1
:10058000019E98E8F00181F82120DCF8002043F674
:10059000F0739A4342EA090242EA0E0222432A43D6
:1005A00032433A4342EA0802CCF8002000228A6330
:1005B00081F8210081F820200020BDE8F043704739
:1005C00090F820C0BCF1010F04BF02207047F0B5C5
:1005D0004FF0010E80F820E090F821C0BCF1010F2F
:1005E00026D14FF0020C80F821C04FF0000CC0F86B
:1005F00038C0D0E900C4C56AC66BDCF80070102CA6
:1006000027F00107CCF80070006C0EFA00F0706063
:100610000846CCF8043004BF10460A46CCF808005F
:10062000CCF80C20DCF8000045B140F00E000DE0E5
:10063000002180F820100220F0BD00BF20F004004F
:10064000CCF80000DCF8000040F00A00CCF8000014
:10065000DCF8000040F00100CCF800000020F0BD04
:100660002DE9F04F82B00E68002E00F0FD8041F2BF
:100670000042C4F20102042340F2004E904208BF3F
:1006800003234FF6FF7CC4F2010E009300240123E4
:10069000C1F2100C4FF0000A4FF000094BE000BF10
:1006A00041F20002C4F20102009F904208BF0227FB
:1006B00004F00C030F229A402BEA020207FA03F31C
:1006C0004FEA9A051A4346F825204E6840F20C4539
:1006D000F202DEF8082054BF22EA080242EA0802C9
:1006E000C4F20105CEF808202A68B30254BF22EAFA
:1006F000080242EA08022A60B303DEF8042054BF6D
:1007000022EA080242EA0802F303CEF80420DEF8E7
:1007100000204FF0010354BF22EA080242EA080217
:10072000CEF800200E680AF1010A36FA0AF204F146
:10073000040400F0998003FA0AFB16EA0B08F1D0D2
:100740004E68664512DC122E56D8DFE806F0350BEF
:100750004D4955555555555555555555555555456D
:10076000510000BFD1F80C9046E000BF4FF6FF7279
:10077000C1F2210296420FDC0022C1F21102964220
:100780001AD00022C1F21202964215D00022C1F204
:100790002102964210D02FE00022C1F2220296429E
:1007A0000AD00022C1F23102964205D00022C1F2E5
:1007B0003202964220D100BF8A684AB1012A14BF92
:1007C000C0F814B0C0F810B04FF0080914E000BF32
:1007D0004FF0040910E000BFCA6802F104090BE001
:1007E0004FF0000908E000BFCA6802F1080903E001
:1007F000CA6802F10C0900BF02462646B8F5807FA0
:1008000024BF0432203E17680F25B54027EA0505AE
:1008100009FA06F635431560CA79D2067FF582AF2C
:1008200041F21803C4F202031A68AEF57E7642F074
:1008300001021A601A6802F001020192019A2AF07C
:10084000030256F802B040F60002C4F201029042E0
:1008500008D040F60042C4F2010290427FF420AF7B
:10086000012725E7002723E702B0BDE8F08F00004D
:1008700040F27410C2F200000068704740F20000BD
:1008800040F27411C2F20000C2F2000100780A685E
:10089000104408607047000080B542F20000C4F2C6
:1008A0000200016841F010010160032000F08CF8A3
:1008B0000F2000F005F800F027F8002080BD0000B0
:1008C00070B540F20006C2F2000640F2080132782C
:1008D000C2F200014FF47A730968B3FBF2F20446E6
:1008E000B1FBF2F1084600F085FB0F2C4FF001053B
:1008F00008D838B94FF0FF3021460022002500F01B
:1009000037F87460284670BD82B041F21800C4F216
:1009100002000168022241F001010160016801F05A
:10092000010101910199416841F0805141604068A5
:1009300000F08050009000980420C4F2010001688B
:1009400062F31A61016002B070470000002848BFDE
:10095000704700F01F01012202FA01F11C2202EA95
:10096000D0004EF20012CEF200028150704700001B
:1009700010B54EF60C5CCEF2000CDCF80030C3F380
:10098000022E8EF00704042C28BF0424BEF10303BA
:100990004FF0FF3E0EFA04F438BF0023A143994004
:1009A0000EFA03F39A43114300F00F0200F1604383
:1009B0000901043A03F564436244002848BF02F188
:1009C0000C03197010BD00004EF60C51CEF2000160
:1009D0000A684FF6FF031A4060F30A2242F0806073
:1009E00040F0FD7008607047002804BF0120704788
:1009F0002DE9F04381B042F20008C4F20208044637
:100A0000D8F800000D4600F0070081420CD9D8F854
:100A1000000020F007002843C8F80000D8F80000C4
:100A200000F00700A8426CD1206841F20409810758
:100A3000C4F2020917D5410705D5D9F8001041F4D1
:100A4000E061C9F80010010705D5D9F8001041F49C
:100A50006051C9F80010D9F80010A26821F0F00127
:100A60001143C9F80010C00742D1D8F8000000F0C7
:100A7000070085420CD2D8F8000020F00700284378
:100A8000C8F80000D8F8000000F00700A84238D1EC
:100A90002068410707D5D9F80010E26821F4E06129
:100AA0001143C9F80010000708D5D9F800002169E2
:100AB00020F4605040EAC100C9F80000D9F80020D5
:100AC00002F00C00082841F20020C0F27A004DD15B
:100AD00042F29403C2F38341C0F60003595CD2038F
:100AE00038D440F60010C0F23D0048433EE000BF5D
:100AF000606859F8041C022808D0012826D189030F
:100B000006D4012001B0BDE8F08300BF8901F8D50B
:100B1000D9F8001021F003010843C9F80000FFF7DD
:100B2000A7FE064641F28837D9F80000616800F058
:100B30000C00B0EB810F98D0FFF79AFE801BB842F3
:100B4000F2D9032001B0BDE8F08300BF8907D8D5F2
:100B5000DEE700BFD9F8002042F29203C2F3404220
:100B6000C0F600039A5C4843B0FBF2F0D9F80010DD
:100B700042F27A02C1F30311C0F60002515C40F266
:100B8000080220FA01F140F20400C2F200000068FD
:100B9000C2F200021160FFF793FE002001B0BDE831
:100BA000F083000040F2080041F20401C2F20000AC
:100BB000C4F202010068096842F28A02C1F302210C
:100BC000C0F60002515CC8407047000040F20800C7
:100BD00041F20401C2F20000C4F202010068096897
:100BE00042F28A02C1F3C221C0F60002515CC84041
:100BF00070470000002804BF012070472DE9F04134
:100C000082B00446007841F20006C007C4F2020632
:100C10000CD0706800F00C00042840F0818030682F
:100C2000800303D56068002800F0468120788007A3
:100C30001BD5706810F00C0F09D0706800F00C0024
:100C4000082840F087807068C00300F18380306816
:100C5000800703D52069012840F02E813068616942
:100C600020F0F80040EAC10030602078000713D47B
:100C7000207840072CD4E569002D00F018817068B9
:100C800000F00C00082840F0A780012D40F00481FE
:100C9000012002B0BDE8F081A069002800F0848046
:100CA0000020C4F242200121C0F88014FFF7E0FDCB
:100CB000054600BF706A800700F1B280FFF7D8FDDB
:100CC000401B0228F6D9032002B0BDE8F08100BF26
:100CD000F0695FEAC00808D4F06940F08050F06124
:100CE000F06900F080500090009847F20007C4F2CD
:100CF00000073868C00549D4386840F4807038600F
:100D0000FFF7B6FD054600BF3868C0053ED4FFF7C3
:100D1000AFFD401B6428F7D9032002B0BDE8F08185
:100D2000706800F00C00082803D17068C0033FF51C
:100D300076AF61683068002900F00C81B1F5A02F12
:100D400000F00081B1F5803F40F01A8140F480301E
:100D50001CE100BF2069002840F20000C4F24220DC
:100D600000F0888001210160FFF782FD054600BF89
:100D7000306880073FF572AFFFF77AFD401B02280D
:100D8000F6D9032002B0BDE8F08100BFE168306A07
:100D9000002900F09D80052900F09280012940F093
:100DA000AF8040F00100B1E00020C4F242200021F9
:100DB000C0F88014FFF75CFD054600BF706A80072D
:100DC0007FF556AFFFF754FD401B0228F6D90320EC
:100DD00002B0BDE8F08100BF0027C4F24227002026
:100DE0003866FFF745FD022D05460DD130688001BC
:100DF00040F1DE80FFF73CFD401B02284FF003006E
:100E0000F4D902B0BDE8F081306880014FD5FFF71A
:100E10002FFD401B02284FF00300F5D9F1E700BF7A
:100E200040F20800C2F20000006844F6D351C1F25B
:100E30006201A0FB0101480A019000BF00BF0198B8
:100E4000411E002801913FF413AF00BF0198411EDD
:100E5000002801913FF40CAF00BF0198411E00280B
:100E600001913FF405AF00BF0198411E0028019198
:100E7000E4D1FDE600210160FFF7FAFC054600BF62
:100E8000306880077FF5F1AEFFF7F2FC401B0228C7
:100E90004FF00300F4D9B4E77068216A00F480329F
:100EA0008A4209D1616A00F47010884204D100209E
:100EB00002B0BDE8F08100BF012002B0BDE8F081C2
:100EC00040F004003062306A40F001001EE000BFD4
:100ED00020F001003062306A20F004003062FFF739
:100EE000C7FC054641F28837306A800720D5FFF7F6
:100EF000BFFC401BB8424FF00300F5D981E700BFAB
:100F000020F001003062306A20F004003062FFF708
:100F1000AFFC054641F28837306A800708D4FFF7F6
:100F2000A7FC401BB842F7D9032002B0BDE8F0810E
:100F3000B8F1000F3FF59FAEF06920F08050F061EE
:100F400099E600BF40F480203060306840F4803083
:100F50001CE000BF20F480303060306820F4802036
:100F60003060FFF785FC0546306880037FF55EAE94
:100F7000FFF77EFC401B64284FF00300F4D940E7E4
:100F800020F480303060306820F480203060FFF73B
:100F90006FFC0546306880033FF548AEFFF768FCFC
:100FA000401B6428F6D9032002B0BDE8F08100BFE1
:100FB000206AB0F5803F05D17168A26821F4003144
:100FC000114371607168626A21F47411114308431E
:100FD000706001203866FFF74BFC044630688001E2
:100FE0003FF565AFFFF744FC001B02284FF00300FC
:100FF000F4D906E7411E0020B0EB116F1CBF0120A1
:1010000070474EF21002CEF2000251604EF62351AC
:10101000CEF20001F0230B70072190601160704741
:1010200090F84230202B0BD194460A4600294FF00D
:10103000010118BFBCF1000F06D10846704700BF80
:1010400002210846704700BF70B582B001210163DC
:101050000025222145638262A0F82CC0456480F8F7
:1010600042100168C36B41F6CD4441F62D6E41F646
:101070005136C0F60004C0F6000EC0F60006C3E903
:101080000A4EC3E90C650431044618466346FFF76F
:1010900097FA0195216820460A68019249680191F2
:1010A0000199216931B300BF016851E8031F02684B
:1010B00041F4807142E80313E3B1016851E8031F72
:1010C000026841F4807142E803139BB1016851E862
:1010D000031F026841F4807142E8031353B10168B1
:1010E00051E8031F026841F4807142E80313002BAA
:1010F000DAD100BF016851E8051F026841F0010123
:1011000042E80513BBB3016851E8051F026841F0CE
:10111000010142E8051373B3016851E8051F026835
:1011200041F0010142E805132BB3016851E8051FA6
:10113000026841F0010142E80513002BDAD11AE000
:10114000016851E8051F026841F0400142E80513BB
:10115000DBB1016851E8051F026841F0400142E837
:10116000051393B1016851E8051F026841F0400181
:1011700042E805134BB1016851E8051F026841F0D0
:10118000400142E80513002BDAD1016B012933D16C
:101190000021009101680A68009249680091009955
:1011A000016851E8031F026841F0100142E803138F
:1011B000DBB1016851E8031F026841F0100142E809
:1011C000031393B1016851E8031F026841F0100155
:1011D00042E803134BB1016851E8031F026841F074
:1011E000100142E80313002BDAD1002102B0BDE860
:1011F00070400846704700BF012102B0BDE8704052
:101200000846704740F2F802C2F20002904218BF4E
:101210007047B0B540F2F80440F24015C2F2000445
:10122000C2F200050A462046294600F0BDFB2046D2
:1012300029463222FFF7F4FE40F27000C2F20000AD
:101240000068016821F004010160BDE8B04070470A
:1012500070470000B0B582B001680A68CC684B697D
:1012600002F02F05202D04F0200505D125B102B094
:10127000BDE8B04000F042BE5FEA027C1EBF03F052
:10128000010E04F4907313EB0E0341D1036BD506EA
:1012900018D5012B16D114F0100313D0002201929F
:1012A0000A6801924A680192019A496949064BD439
:1012B000818DC28DC38D002B18BF914240F0F48107
:1012C00002B0B0BD13062DD514F080032AD090F8DB
:1012D0004120212AF4D18268B2F5805F03D10269EE
:1012E000002A00F06782026A531C036212784A6087
:1012F000C28C013A1304C284E2D1C86820F0800095
:10130000C860C86840F04000C86002B0B0BD00BF0F
:10131000D30718BF14F4807340F0D080530700F156
:10132000D380D8E05206CBD514F04002C8D0CA68AA
:1013300022F04002CA60202180F8411002B0BDE8CE
:10134000B04000F093BB00BFC16B0A68526893B213
:10135000002BB5D0858DAB42B2D2C28589692029D8
:1013600000F0A180016851E8031F026821F4807138
:1013700042E80313DBB1016851E8031F026821F45E
:10138000807142E8031393B1016851E8031F0268BA
:1013900021F4807142E803134BB1016851E8031F47
:1013A000026821F4807142E80313002BDAD101684E
:1013B00051E8051F026821F0010142E80513C3B39B
:1013C000016851E8051F026821F0010142E8051398
:1013D0007BB3016851E8051F026821F0010142E872
:1013E000051333B3016851E8051F026821F00101BC
:1013F00042E80513002BDAD11BE000BF016851E879
:10140000051F026821F0400142E80513DBB10168C5
:1014100051E8051F026821F0400142E8051393B12D
:10142000016851E8051F026821F0400142E80513F8
:101430004BB1016851E8051F026821F0400142E804
:101440000513002BDAD1202180F84210002101631E
:10145000016851E8031F026821F0100142E80313FC
:10146000DBB1016851E8031F026821F0100142E876
:10147000031393B1016851E8031F026821F01001C2
:1014800042E803134BB1016851E8031F026821F0E1
:10149000100142E80313002BDAD1C16B0446084661
:1014A000FEF7FCFE204602214163818DC28D891A20
:1014B00089B202B0BDE8B040FFF7A4BE436C43F070
:1014C00001034364530706D5BEF1000F03D0436CFC
:1014D00043F002034364930706D5BEF1000F03D027
:1014E000436C43F004034364BCF1000F06D55EEA8D
:1014F000050303D0436C43F008034364436C002BA3
:101500003FF4DEAE920605D525B1044600F0F6FCA8
:10151000216820464969426C01F0400102F008024E
:10152000891800F0B98000BF016851E8031F026804
:1015300021F4907142E80313BBB3016851E8031F23
:10154000026821F4907142E8031373B3016851E813
:10155000031F026821F4907142E803132BB3016862
:1015600051E8031F026821F4907142E80313002B35
:10157000DAD11AE0016851E8051F026821F0010183
:1015800042E80513DBB1016851E8051F026821F04C
:10159000010142E8051393B1016851E8051F026893
:1015A00021F0010142E805134BB1016851E8051F24
:1015B000026821F0010142E80513002BDAD1016B2A
:1015C000012924D1016851E8031F026821F01001AC
:1015D00042E80313DBB1016851E8031F026821F000
:1015E000100142E8031393B1016851E8031F026838
:1015F00021F0100142E803134BB1016851E8031FC9
:10160000026821F0100142E80313002BDAD12021F7
:1016100080F842100021016301684969490640F1E0
:10162000C380016851E8051F026821F0400142E8CB
:101630000513DBB1016851E8051F026821F0400184
:1016400042E8051393B1016851E8051F026821F0D3
:10165000400142E805134BB1016851E8051F0268DB
:1016600021F0400142E80513002BDAD1C16B0029BB
:1016700000F09A8041F64532C0F600020446084662
:101680004A63FEF72FFE00283FF41AAEE06B416B71
:1016900002B0BDE8B04008470446FFF7D9FD00207E
:1016A000606402B0B0BD00BF891A00BF026852E892
:1016B000032F036822F4907243E80325BDB3026848
:1016C00052E8032F036822F4907243E8032575B3B0
:1016D000026852E8032F036822F4907243E803255E
:1016E0002DB3026852E8032F036822F4907243E896
:1016F0000325002DDAD11AE0026852E8052F0368AD
:1017000022F0010243E80525DDB1026852E8052F09
:10171000036822F0010243E8052595B1026852E80A
:10172000052F036822F0010243E805254DB1026848
:1017300052E8052F036822F0010243E80525002D39
:10174000DAD1202280F8422000220263026852E8A7
:10175000032F036822F0100243E80325DDB102687D
:1017600052E8032F036822F0100243E8032595B1E5
:10177000026852E8032F036822F0100243E80325B1
:101780004DB1026852E8032F036822F0100243E8CB
:101790000325002DDAD1022289B2426302B0BDE8EE
:1017A000B040FFF72FBD00BF02B0BDE8B040FFF76B
:1017B0004FBD00BF026A32F8023B6FF35F234B60FC
:1017C000026295E5002804BF0120704710B5044669
:1017D00090F8410028B9002084F84000204600F02D
:1017E00063F8242084F841002068D4E90212C36819
:1017F00023F40053C360036923F440531A43026186
:10180000D4E904231143C268194341F20C639A439B
:101810001143C1604169A26921F44071114343F64B
:101820000002C4F201029042416103D0FFF7BAF90D
:1018300002E000BFFFF7CAF9D4E9002319214843A9
:101840009900B0FBF1F048F21F5CC5F2EB1CA0FB65
:101850000C314FF69C734909C0F6FF7301FB03007E
:10186000322303EB0010A0FB0C03F02000EA53101E
:1018700000EB0110C3F3431108449060106920216C
:1018800020F490401061506920F02A005061D06827
:1018900040F40050D0600020606484F8411084F867
:1018A0004210606310BD00002DE9F04186B040F6A3
:1018B00000050446C4F201050068A5F5444100276F
:1018C00088420597CDE90377029703D006B0BDE8BB
:1018D000F08100BF41F21800C4F20200416802AE7C
:1018E00041F400314160416840F26C0801F400317C
:1018F000019101990168C4F2020841F004010160FC
:101900000068314600F00400019001980420029024
:1019100002200390032005902846FEF7A1FE082030
:10192000CDE90207284631460497FEF799FE40F2BA
:101930007005C2F2000580262846C5E90087C5E982
:101940000276C5E90477C5E90677FEF7F7FD0028BA
:1019500018BFFEF79DFCE5636C6240F2B40508F128
:101960001400C2F200051021002285E84700284635
:10197000C5E90422C5E90622FEF7E0FD002818BFEC
:10198000FEF786FC262000210022A5636C62FEF78C
:10199000EFFF2620FEF7DAFF06B0BDE8F081000079
:1019A000704700007047000090F84130202B09D1AB
:1019B000944600294FF0010218BFBCF1000F05D179
:1019C0001046704702221046704700BF70B50022D3
:1019D00021230162A0F824C0A0F826C0426480F848
:1019E00041300468836B41F6456E41F6F56541F67A
:1019F0005136C0F6000EC0F60005C0F60006C3E979
:101A00000AE5C3E90C62221D044618466346FEF748
:101A1000D7FD216820466FF040020A60016851E856
:101A2000051F026841F0800142E80513DBB101683F
:101A300051E8051F026841F0800142E8051393B1A7
:101A4000016851E8051F026841F0800142E8051372
:101A50004BB1016851E8051F026841F0800142E87E
:101A60000513002BDAD1002070BD00007047000084
:101A700070470000FEE7000080B582B041F214001C
:101A8000C4F202000168002241F001010160006817
:101A9000002100F00100019001981020FEF768FF7E
:101AA0001020FEF753FF112000210022FEF760FFF7
:101AB000112002B0BDE88040FEF748BF82B041F27D
:101AC0001800C4F20200016841F0200101600168C1
:101AD00001F0200101910199016841F004010160C8
:101AE000006800F004000090009802B07047000009
:101AF00080B540F2F80044F20041C2F20000C4F2A6
:101B0000000100234FF00C0C4FF4E13280E80E008E
:101B1000C0E90333C0E905C3C361FFF753FE0028E2
:101B200008BF80BDBDE88040FEF7B2BBFEE7000005
:101B3000FEE700007047000070470000FEF79EBE01
:101B400070470000406A0021C185C184FFF780BB57
:101B5000406A01684A6990F84130212B2DD112F07A
:101B600080022AD00021C184016851E8031F026865
:101B700021F0C00142E80313DBB1016851E8031F03
:101B8000026821F0C00142E8031393B1016851E8F3
:101B9000031F026821F0C00142E803134BB1016842
:101BA00051E8031F026821F0C00142E80313002B33
:101BB000DAD1202180F841100168496990F842206B
:101BC000222A40F07D8011F0400179D00021C185AA
:101BD000016851E8031F026821F4907142E8031381
:101BE000BBB3016851E8031F026821F4907142E819
:101BF000031373B3016851E8031F026821F4907165
:101C000042E803132BB3016851E8031F026821F473
:101C1000907142E80313002BDAD11AE0016851E811
:101C2000051F026821F0010142E80513DBB10168DC
:101C300051E8051F026821F0010142E8051393B144
:101C4000016851E8051F026821F0010142E805130F
:101C50004BB1016851E8051F026821F0010142E81B
:101C60000513002BDAD1016B012924D1016851E859
:101C7000031F026821F0100142E80313DBB1016881
:101C800051E8031F026821F0100142E8031393B1E9
:101C9000016851E8031F026821F0100142E80313B4
:101CA0004BB1016851E8031F026821F0100142E8BE
:101CB0000313002BDAD1202180F8421000210163A8
:101CC000416C41F010014164FFF7C2BA0168406AFB
:101CD0000968890600F19F800021C185016851E8EB
:101CE000031F026821F4807142E80313E3B1016825
:101CF00051E8031F026821F4807142E803139BB18D
:101D0000016851E8031F026821F4807142E803135F
:101D100053B1016851E8031F026821F4807142E861
:101D20000313002BDAD100BF016851E8051F0268D8
:101D300021F0010142E80513BBB3016851E8051F1A
:101D4000026821F0010142E8051373B3016851E80C
:101D5000051F026821F0010142E805132BB3016859
:101D600051E8051F026821F0010142E80513002B2C
:101D7000DAD11AE0016851E8051F026821F040013C
:101D800042E80513DBB1016851E8051F026821F044
:101D9000400142E8051393B1016851E8051F02684C
:101DA00021F0400142E805134BB1016851E8051FDD
:101DB000026821F0400142E80513002BDAD120210E
:101DC00080F84210016B012925D100BF016851E85C
:101DD000031F026821F0100142E80313DBB1016820
:101DE00051E8031F026821F0100142E8031393B188
:101DF000016851E8031F026821F0100142E8031353
:101E00004BB1016851E8031F026821F0100142E85C
:101E10000313002BDAD100214163016B012918BFA4
:101E2000FFF7BEBD818DFFF7EDB90000406A0121CB
:101E30004163016B012918BFFFF7B4BD818D4908CB
:101E4000FFF7E0B90168406A0968890648BFFFF7F3
:101E50000DBE0021C18400BF016851E8051F026862
:101E600021F0800142E8051383B3016851E8051FA2
:101E7000026821F0800142E805133BB3016851E894
:101E8000051F026821F0800142E80513F3B10168E3
:101E900051E8051F026821F0800142E80513002B7C
:101EA000DAD113E0016851E8031F026841F04001F4
:101EB00042E80313002B08BF7047016851E8031F75
:101EC000026841F0400142E8031393B1016851E810
:101ED000031F026841F0400142E803134BB101685F
:101EE00051E8031F026841F0400142E80313002B50
:101EF000D8D17047406AFFF7BBBD000081B090F8B1
:101F00004210222921D183680246B3F5805F09D1AE
:101F100052F8281F52F8183C002B63D003685B6806
:101F20000AE000BF52F8281F13B90369002BF5D04F
:101F300003685B6803F07F030B7011680131116067
:101F4000C18D01390A04C18502D001B0704700BFBC
:101F50000168CA6822F02002CA60CA6822F480724E
:101F6000CA604A6922F001024A61202180F84210C9
:101F700000214163026B012A3CD10163016851E8F1
:101F8000031F026821F0100142E80313DBB101686E
:101F900051E8031F026821F0100142E8031393B1D6
:101FA000016851E8031F026821F0100142E80313A1
:101FB0004BB1016851E8031F026821F0100142E8AB
:101FC0000313002BDAD101680A68D20606D5002275
:101FD00000920A680092496800910099818D01B0D1
:101FE000FFF710B9026852686FF35F2221F8022BE5
:101FF0008162A5E701B0FFF7D3BC000040F2F80012
:10200000C2F20000FFF726B9FEE7000090B0FEF72D
:1020100043FC00240120CDE90B44CDE9094406909E
:102020000A904FF4E0104FF4803102250F9006A87B
:10203000CDE90714CDE90D51FEF7DCFD20B1EFF33A
:10204000108072B6FEE700BF0F20CDE901054FF406
:102050008060CDE9040401A802210394FEF7C4FCCA
:1020600020B1EFF3108072B6FEE700BFFFF726FD48
:10207000FFF702FDFFF73CFDFEE700000000000057
:102080000000010203040607080900000000010225
:102090000304010202030405060708090A0B0C0DDC
:1020A0000E0F1010C82000080000002010000000D3
:1020B00050010008D8200008100000206807000028
:1020C0007001000800000000010000001000000086
:0820D00000127A00000000007C
:04000005080000ED02
:00000001FF
