:020000040800F2
:1000000010070020BD010008A9180008911700087A
:10001000A5180008AD040008C5190008000000007C
:10002000000000000000000000000000B1180008FF
:10003000B104000800000000AD180008B518000861
:10004000D7010008D7010008D7010008D701000830
:10005000D7010008D7010008D7010008D701000820
:10006000D7010008D7010008D7010008D701000810
:10007000D7010008D7010008D7010008D701000800
:10008000D7010008D7010008D7010008D7010008F0
:10009000D7010008D7010008D7010008D7010008E0
:1000A000D7010008D7010008D7010008D7010008D0
:1000B000BD180008D7010008D7010008D7010008C3
:1000C000D7010008D7010008D7010008D7010008B0
:1000D000D7010008D7010008D7010008D7010008A0
:1000E000D7010008D7010008D701000800F002F886
:1000F00000F055F814A696E8000CB244B344DA4573
:1001000001D100F04CF8BAE80F000FA696E83000D5
:10011000A5EB040504EB0607AAEB0704A7F101070A
:100120004FEA15154FEA3414A4F10104AC4201D38F
:1001300000F035F813F0010F18BFFB1A43F001036C
:1001400000F001F8DBE718476C1900008C1900007B
:10015000103A24BF78C878C1FAD8520724BF30C8F3
:1001600030C144BF04680C60704700007047000055
:100170000023002400250026103A28BF78C1FBD8B0
:10018000520728BF30C148BF0B607047642900F098
:100190007D80002070471FB51FBD10B510BD00F059
:1001A0004AF91146FFF7F7FF01F00EFC00F068F97D
:1001B00003B4FFF7F2FF03BC00F070F90948804771
:1001C00009480047FEE7FEE7FEE7FEE7FEE7FEE739
:1001D000FEE7FEE7FEE7FEE704480549054A064B51
:1001E00070470000B9180008ED0000081001002059
:1001F0001007002010030020100300200FB41CB5CE
:10020000074B06AA7B4469460090059800F0FBF86E
:100210000020694600F00AF91CBC5DF814FB0000E0
:10022000250200002DE9F0410E4604460020206220
:100230002046E168884730B3252805D0D4E901215C
:100240009047206A401CF2E7E16820460027884773
:10025000050018D0A5F14100192802D820354FF427
:1002600000673246294620462760FFF78FFF40B1DE
:10027000012804D0F61D26F007060836D8E7361DFB
:10028000D6E72846DAE7206ABDE8F0812DE9F0419B
:100290000646002410687529314616A510D0AFF324
:1002A0000080002802DA404213A507E031688A077F
:1002B00001D512A502E0490704D511A5012401E0EA
:1002C000AFF3008000210A2206F1240709E0B0FB09
:1002D000F2FCB0FBF2F302FB1C00303078541846FD
:1002E000491C0028F3D123462A463046BDE8F04198
:1002F00000F02AB8000000002D0000002B000000D4
:100300002000000010B5431C02E010F8011B71B181
:100310008107FAD14FF0013202C88C1A8C4314EADB
:10032000C211F9D0C01A0A0603D0C01E10BDC01AEF
:1003300010BD0A0401D0801E10BD0902FCD0401E71
:1003400010BD7047704770472DE9F0470D4699463C
:100350009246044600F124080168880604D5E06945
:1003600021F01001216000E00120A84201DD471BBF
:1003700000E00027A1697A1902EB0900081AA061C0
:100380002078C00602D42046AFF30080002608E0A3
:10039000D4E901211AF806009047206A401C761C17
:1003A00020624E45F4DB2078C0060AD52046AFF324
:1003B000008006E0D4E9012130209047206A401CEB
:1003C0002062381EA7F10107F4DC07E0D4E901211F
:1003D00018F805009047206A401C2062281EA5F1ED
:1003E0000105F3DC2046AFF300802078000602D53B
:1003F0000220BDE8F0870120FBE7000001694A1CEC
:1004000002610878704700B58FB0CDE90131002155
:10041000059105497944CDE9031011466846FFF777
:1004200001FF0FB000BD0000E5FFFFFF0A6802F802
:10043000010B0A607047754600F02CF8AE460500C7
:100440006946534620F00700854618B020B5FFF7EF
:10045000C3FEBDE820404FF000064FF000074FF00C
:1004600000084FF0000BAC46ACE8C009ACE8C0098E
:10047000ACE8C009ACE8C00921F007018D4670471F
:1004800010B50446AFF300802046BDE81040FFF7EA
:100490008FBE000000487047180000200149182056
:1004A000ABBEFEE72600020070470000FEE700003A
:1004B00070470000EFF3108072B600BFFEE7000047
:1004C000B0B5044600F018F9054640F20000C2F24B
:1004D00000000078611C18BF044400BF00F00CF954
:1004E000401BA042FAD3B0BD2DE9F04F82B00E6898
:1004F000002E00F0FD8041F20042C4F2010204230C
:1005000040F2004E904208BF03234FF6FF7CC4F236
:10051000010E009300240123C1F2100C4FF0000AD9
:100520004FF000094BE000BF41F20002C4F20102AB
:10053000009F904208BF022704F00C030F229A404C
:100540002BEA020207FA03F34FEA9A051A4346F828
:1005500025204E6840F20C45F202DEF8082054BF18
:1005600022EA080242EA0802C4F20105CEF8082095
:100570002A68B30254BF22EA080242EA08022A604B
:10058000B303DEF8042054BF22EA080242EA08025C
:10059000F303CEF80420DEF800204FF0010354BF2F
:1005A00022EA080242EA0802CEF800200E680AF1A8
:1005B000010A36FA0AF204F1040400F0998003FA01
:1005C0000AFB16EA0B08F1D04E68664512DC122EC3
:1005D00056D8DFE806F0350B4D495555555555555C
:1005E0005555555555555545510000BFD1F80C90FE
:1005F00046E000BF4FF6FF72C1F2210296420FDCC7
:100600000022C1F2110296421AD00022C1F2120257
:10061000964215D00022C1F22102964210D02FE05E
:100620000022C1F2220296420AD00022C1F2310217
:10063000964205D00022C1F23202964220D100BF7C
:100640008A684AB1012A14BFC0F814B0C0F810B0CB
:100650004FF0080914E000BF4FF0040910E000BF9C
:10066000CA6802F104090BE04FF0000908E000BF7E
:10067000CA6802F1080903E0CA6802F10C0900BF68
:1006800002462646B8F5807F24BF0432203E176814
:100690000F25B54027EA050509FA06F6354315602A
:1006A000CA79D2067FF582AF41F21803C4F2020381
:1006B0001A68AEF57E7642F001021A601A6802F0FE
:1006C00001020192019A2AF0030256F802B040F6A4
:1006D0000002C4F20102904208D040F60042C4F287
:1006E000010290427FF420AF012725E7002723E78E
:1006F00002B0BDE8F08F000040F20810C2F2000026
:100700000068704740F2000040F20811C2F2000099
:10071000C2F2000100780A681044086070470000C7
:1007200080B542F20000C4F20200016841F01001FD
:100730000160032000F08CF80F2000F005F800F0B5
:1007400027F8002080BD000070B540F20006C2F21C
:10075000000640F208013278C2F200014FF47A73C9
:100760000968B3FBF2F20446B1FBF2F1084600F06F
:1007700085FB0F2C4FF0010508D838B94FF0FF303A
:1007800021460022002500F037F87460284670BD2D
:1007900082B041F21800C4F202000168022241F066
:1007A00001010160016801F00101019101994168B5
:1007B00041F080514160406800F080500090009806
:1007C0000420C4F20100016862F31A61016002B002
:1007D00070470000002848BF704700F01F01012249
:1007E00002FA01F11C2202EAD0004EF20012CEF20F
:1007F000000281507047000010B54EF60C5CCEF23E
:10080000000CDCF80030C3F3022E8EF00704042C39
:1008100028BF0424BEF103034FF0FF3E0EFA04F498
:1008200038BF0023A14399400EFA03F39A431143C2
:1008300000F00F0200F160430901043A03F564433C
:100840006244002848BF02F10C03197010BD00007B
:100850004EF60C51CEF200010A684FF6FF031A4023
:1008600060F30A2242F0806040F0FD70086070473B
:10087000002804BF012070472DE9F04381B042F207
:100880000008C4F202080446D8F800000D4600F043
:10089000070081420CD9D8F8000020F00700284357
:1008A000C8F80000D8F8000000F00700A8426CD19A
:1008B000206841F204098107C4F2020917D54107F3
:1008C00005D5D9F8001041F4E061C9F8001001071E
:1008D00005D5D9F8001041F46051C9F80010D9F8D5
:1008E0000010A26821F0F0011143C9F80010C00700
:1008F00042D1D8F8000000F0070085420CD2D8F8A9
:10090000000020F007002843C8F80000D8F80000D5
:1009100000F00700A84238D12068410707D5D9F870
:100920000010E26821F4E0611143C9F800100007EB
:1009300008D5D9F80000216920F4605040EAC100D0
:10094000C9F80000D9F8002002F00C00082841F294
:100950000020C0F27A004DD141F6A223C2F38341B8
:10096000C0F60003595CD20338D440F60010C0F240
:100970003D0048433EE000BF606859F8041C02286F
:1009800008D0012826D1890306D4012001B0BDE892
:10099000F08300BF8901F8D5D9F8001021F00301D8
:1009A0000843C9F80000FFF7A7FE064641F2883762
:1009B000D9F80000616800F00C00B0EB810F98D00E
:1009C000FFF79AFE801BB842F2D9032001B0BDE8C0
:1009D000F08300BF8907D8D5DEE700BFD9F8002033
:1009E00041F6A023C2F34042C0F600039A5C48439C
:1009F000B0FBF2F0D9F8001041F68822C1F30311E0
:100A0000C0F60002515C40F2080220FA01F140F207
:100A10000400C2F200000068C2F200021160FFF799
:100A200093FE002001B0BDE8F083000040F2080012
:100A300041F20401C2F20000C4F202010068096838
:100A400041F69822C1F30221C0F60002515CC84071
:100A50007047000040F2080041F20401C2F20000B9
:100A6000C4F202010068096841F69822C1F3C2216C
:100A7000C0F60002515CC84070470000002804BF67
:100A8000012070472DE9F04182B00446007841F220
:100A90000006C007C4F202060CD0706800F00C001B
:100AA000042840F081803068800303D56068002806
:100AB00000F04681207880071BD5706810F00C0F7D
:100AC00009D0706800F00C00082840F0878070683A
:100AD000C00300F183803068800703D520690128B6
:100AE00040F02E813068616920F0F80040EAC100D2
:100AF00030602078000713D4207840072CD4E569B3
:100B0000002D00F01881706800F00C00082840F0FB
:100B1000A780012D40F00481012002B0BDE8F081E2
:100B2000A069002800F084800020C4F24220012146
:100B3000C0F88014FFF7E0FD054600BF706A80072B
:100B400000F1B280FFF7D8FD401B0228F6D9032040
:100B500002B0BDE8F08100BFF0695FEAC00808D4C8
:100B6000F06940F08050F061F06900F08050009032
:100B7000009847F20007C4F200073868C00549D45E
:100B8000386840F480703860FFF7B6FD054600BF56
:100B90003868C0053ED4FFF7AFFD401B6428F7D985
:100BA000032002B0BDE8F081706800F00C00082856
:100BB00003D17068C0033FF576AF616830680029E3
:100BC00000F00C81B1F5A02F00F00081B1F5803F5D
:100BD00040F01A8140F480301CE100BF20690028F9
:100BE00040F20000C4F2422000F088800121016040
:100BF000FFF782FD054600BF306880073FF572AF02
:100C0000FFF77AFD401B0228F6D9032002B0BDE8A9
:100C1000F08100BFE168306A002900F09D8005295D
:100C200000F09280012940F0AF8040F00100B1E077
:100C30000020C4F242200021C0F88014FFF75CFDC0
:100C4000054600BF706A80077FF556AFFFF754FD79
:100C5000401B0228F6D9032002B0BDE8F08100BF96
:100C60000027C4F2422700203866FFF745FD022D19
:100C700005460DD13068800140F1DE80FFF73CFD74
:100C8000401B02284FF00300F4D902B0BDE8F08108
:100C9000306880014FD5FFF72FFD401B02284FF031
:100CA0000300F5D9F1E700BF40F20800C2F20000EE
:100CB000006844F6D351C1F26201A0FB0101480A69
:100CC000019000BF00BF0198411E002801913FF430
:100CD00013AF00BF0198411E002801913FF40CAFF3
:100CE00000BF0198411E002801913FF405AF00BFED
:100CF0000198411E00280191E4D1FDE60021016028
:100D0000FFF7FAFC054600BF306880077FF5F1AEBB
:100D1000FFF7F2FC401B02284FF00300F4D9B4E7C0
:100D20007068216A00F480328A4209D1616A00F455
:100D30007010884204D1002002B0BDE8F08100BFED
:100D4000012002B0BDE8F08140F004003062306A5A
:100D500040F001001EE000BF20F001003062306A68
:100D600020F004003062FFF7C7FC054641F28837E7
:100D7000306A800720D5FFF7BFFC401BB8424FF018
:100D80000300F5D981E700BF20F001003062306A2E
:100D900020F004003062FFF7AFFC054641F28837CF
:100DA000306A800708D4FFF7A7FC401BB842F7D988
:100DB000032002B0BDE8F081B8F1000F3FF59FAE0F
:100DC000F06920F08050F06199E600BF40F4802087
:100DD0003060306840F480301CE000BF20F4803088
:100DE0003060306820F480203060FFF785FC0546D5
:100DF000306880037FF55EAEFFF77EFC401B642801
:100E00004FF00300F4D940E720F4803030603068C0
:100E100020F480203060FFF76FFC054630688003C7
:100E20003FF548AEFFF768FC401B6428F6D9032065
:100E300002B0BDE8F08100BF206AB0F5803F05D167
:100E40007168A26821F40031114371607168626AAF
:100E500021F4741111430843706001203866FFF7D4
:100E60004BFC0446306880013FF565AFFFF744FC5A
:100E7000001B02284FF00300F4D906E7411E0020B2
:100E8000B0EB116F1CBF012070474EF21002CEF282
:100E9000000251604EF62351CEF20001F0230B7098
:100EA0000721906011607047704700007047000094
:100EB00090F83C20012A4FF0020236D010B580F89D
:100EC0003D200268D2F804E0D2F808C00C682EF089
:100ED0007003234340F2FF74C4F20004A242536043
:100EE0000ADCB2F1804F13D040F20043C4F2000399
:100EF0009A420DD011E000BF42F60043C4F2010354
:100F00009A4205D040F60003C4F200039A4204D18D
:100F100049682CF08003194391600121002280F878
:100F20003D1080F83C20BDE810401046704700009E
:100F3000002804BF0120704710B590F83D1031B96A
:100F4000002180F83C10044600F070F82046022191
:100F500080F83D10016840F2FF740B68C4F2000491
:100F600042F6004CA142C4F2010C15DCB1F1804FF5
:100F70001AD040F20042C4F20002914214D0A142C1
:100F800018DCB1F1804F1DD040F20042C4F20002E3
:100F9000914217D01AE000BF614505D040F600022B
:100FA000C4F200029142EAD1826823F07003134335
:100FB000A142E6DD614505D040F60002C4F2000220
:100FC000914203D1026923F440731343846923F0EF
:100FD0008002D0F804E0C368224361450A60CB6216
:100FE000C1F828E002D14269CCF8302001224A61E0
:100FF0000B69DB0703D00B6923F001030B6180F859
:10100000462080F83E2080F83F2080F8402080F87D
:10101000412080F8422080F8432080F8442080F866
:10102000452080F83D20002010BD000080B586B02E
:1010300000680021B0F1804FCDE9041103910291C5
:1010400002D006B080BD00BF41F21800C4F2020019
:10105000426842F001024260426802F001020192DD
:10106000019A026842F004020260006800F0040085
:10107000019001980120CDE9020140F600000491A1
:10108000C4F2010002A9FFF72FFA1C200021002260
:10109000FFF7B2FB1C20FFF79DFB06B080BD0000F0
:1010A00090F83D1001291CBF01207047022180F8F3
:1010B0003D10006840F2FF72C168C4F20002904225
:1010C00041F00101C16009DCB0F1804F12D040F263
:1010D0000041C4F2000188420CD012E042F6004107
:1010E000C4F20101884205D040F60001C4F20001BB
:1010F000884206D1816801F00701062904BF00205B
:101100007047016841F00101016000207047000054
:1011100090F83C20012A4FF002026CD080B580F894
:101120003D20D0F800C04FF67772DCF8083023EA93
:101130000202CCF808200B684F2B29DC1F2B45DD61
:10114000202B46D0302B44D0402B40F0AF80D1F83C
:1011500004E0C968DCF82030DCF8202022F001022D
:10116000CCF82020DCF8182022F0F00242EA01112D
:1011700023F00A0242EA0E02CCF81810CCF8202024
:10118000DCF8081041F0470121F0300128E000BFF1
:101190006F2B33DDB3F5005F74D0B3F5805F21D0E2
:1011A000702B40F08380D1E901E3C968DCF80820A6
:1011B00043EA0E0322F47F4243EA01211143CCF8B3
:1011C0000810DCF8081041F0770109E00BB1102B92
:1011D0006CD1DCF8081021F07001194341F00701CF
:1011E000CCF808100022012180F83D10002180F881
:1011F0003C10BDE880401046704700BF502B21D006
:10120000602B53D1D1F804E0C968DCF82030DCF859
:10121000202022F01002CCF82020DCF8182022F444
:10122000704242EA013123F0A00242EA0E12CCF8E9
:101230001810CCF82020DCF8081041F0670121F0EC
:101240001001CDE7D1F804E0C968DCF82030DCF803
:10125000202022F00102CCF82020DCF8182022F017
:10126000F00242EA011123F00A0242EA0E02CCF82F
:101270001810CCF82020DCF8081041F0570121F0BC
:101280002001ADE7D1E901E3C968DCF8082043EAB1
:101290000E0322F47F4243EA01211143CCF80810E7
:1012A000DCF8081041F480419AE700BF01229AE778
:1012B0007047000070B504460068C5680669B1074C
:1012C00016D515F0020113D06FF002010161012162
:1012D00021778069800703D02046FFF7E9FF05E00A
:1012E000204600F08FF8204600F08EF8002020778E
:1012F000700719D515F0040016D020686FF00401AE
:10130000016102212177806910F4407F04D02046DA
:10131000FFF7CEFF06E000BF204600F073F820463E
:1013200000F072F800202077300717D515F008007C
:1013300014D020686FF00801016104212177C06991
:10134000800703D02046FFF7B3FF05E0204600F0FA
:1013500059F8204600F058F800202077F00619D5FB
:1013600015F0100016D020686FF0100101610821FF
:101370002177C06910F4407F04D02046FFF798FF22
:1013800006E000BF204600F03DF8204600F03CF8A3
:1013900000202077F00718BF15F0010002D13006B9
:1013A00009D412E020686FF001010161204600F0CD
:1013B0002DF8300609D515F0800006D020686FF0B2
:1013C000800101612046FFF76FFD700609D515F019
:1013D000400006D020686FF040010161204600F017
:1013E0005BF8B00658BF70BD15F0200008D021682A
:1013F0006FF0200220460A61BDE87040FFF756BD3D
:1014000070BD0000704700007047000040F2780196
:10141000C2F20001884218BF704710B540F20C04B8
:10142000C2F200042046FEF76DFF82B240F2C00017
:10143000C2F2000021466423BDE8104000F0DEB88F
:10144000B0B5044690F83C0001284FF0020008BFF8
:10145000B0BD012584F83C5084F83D00204600F0E2
:1014600033FA00284FF0010006D0002184F83D50E7
:1014700084F83C10B0BD00BF2068C16821F0400175
:10148000C160C16821F48041C1600020002184F85E
:101490003D5084F83C10B0BD70470000002804BFE8
:1014A0000120704710B5044690F8410028B900208B
:1014B00084F84000204600F063F8242084F84100BE
:1014C0002068D4E90212C36823F40053C36003699F
:1014D00023F440531A430261D4E904231143C26840
:1014E000194341F20C639A431143C1604169A269F7
:1014F00021F44071114343F60002C4F2010290420C
:10150000416103D0FFF792FA02E000BFFFF7A2FAB1
:10151000D4E90023192148439900B0FBF1F048F2C7
:101520001F5CC5F2EB1CA0FB0C314FF69C73490904
:10153000C0F6FF7301FB0300322303EB0010A0FB96
:101540000C03F02000EA531000EB0110C3F3431129
:10155000084490601069202120F490401061506987
:1015600020F02A005061D06840F40050D060002084
:10157000606484F8411084F84210606310BD00007C
:1015800070B586B040F60004C4F201040068A4F50A
:101590004441002688420596CDE90366029601D0B3
:1015A00006B070BD41F21800C4F20200416802ADFD
:1015B00041F400314160416801F400310191019929
:1015C000016841F0040101600068294600F0040050
:1015D00001900198042002900220039003200590BE
:1015E0002046FEF781FF0820CDE902062046294665
:1015F0000496FEF779FF06B070BD00002DE9F043B8
:1016000081B0044690F84100202809D100294FF00C
:10161000010018BF002A07D101B0BDE8F08300BF68
:10162000022001B0BDE8F0830020606421201D4647
:101630000E4684F841001746FFF75EF8A784E7845A
:10164000A1688146B1F5805F02D1206900285DD094
:1016500037460020E28C2168002A5DD06A1C24D025
:10166000002D4AD0804600BF0868000608D4FFF766
:1016700043F8A0EB0900A8427AD82168C868F3E7CC
:1016800017B117F8010B04E038F8020B00276FF3CD
:101690005F204860E08C0138E084E08C0028E3D1D2
:1016A0003AE000BF0A68120609D40A68120606D496
:1016B0000A6812065CBF0A685FEA0262F2D51FB1CF
:1016C00017F8012B05E000BF30F8022B00276FF35D
:1016D0005F224A60E28C013AE284E28C002AE4D183
:1016E0001AE000BF30F8022B00276FF35F224A6038
:1016F000E28C013AE284E28C72B10A68120635D5B6
:10170000002FEFD017F8012BF1E700BF002730467C
:10171000E28C2168002AA1D1086840061ED42DB3AE
:10172000681C14D1086840062AD40868400627D4EB
:101730000868400624D4086840064FF00000F1D540
:101740000DE000BF2068C1680068400618D4FEF7AD
:10175000D3FFA0EB0900A842F4D909E00020202122
:1017600084F8411001B0BDE8F08300BFFEF7C4FF6C
:101770000320202184F8411001B0BDE8F08300BFB0
:101780000020202184F8411001B0BDE8F083000062
:10179000FEE7000082B041F21800C4F202000168C6
:1017A00041F020010160016801F0200101910199DF
:1017B000016841F004010160006800F0040000903D
:1017C000009802B07047000010B58CB040F278006D
:1017D0000021C2F200004FF0804241F63F7341F217
:1017E00087340B91CDE909110691CDE90011C0E9CB
:1017F0000023C0E9021401618161FFF799FB002811
:1018000018BFFEF757FE4FF48050089040F2780062
:10181000C2F2000008A9FFF77BFC002818BFFEF702
:1018200049FE04200390502004900F20079040F2BE
:1018300078000024C2F2000003A90594FFF700FE1F
:10184000002818BFFEF736FE40F27800C2F2000012
:101850006946CDE90044FFF72BFB002818BFFEF7CF
:1018600029FE0CB010BD000080B540F2C00044F26B
:101870000041C2F20000C4F2000100234FF00C0C42
:101880004FF4E13280E80E00C0E90333C0E905C33C
:10189000C361FFF703FE002808BF80BDBDE880409C
:1018A000FEF708BEFEE70000FEE7000070470000FC
:1018B00070470000FEF726BF7047000040F2780036
:1018C000C2F20000FFF7F6BC80B5D0F800E0DEF809
:1018D0000800D1E900C320F0770023F0070210438D
:1018E0004FEA331340EA0C00072BCEF808000CD85F
:1018F0000020DFE803F005050505071D370D00BFD3
:1019000080BD00BFBCF1050F46D1012080BD00BFE6
:10191000D1E902020969DEF80830104323F47F435D
:1019200040EA01201843CEF80800002080BD00BF27
:1019300088680969DEF82020DEF8203022F00A02EB
:1019400023F00103CEF82030DEF81830104323F0E6
:10195000F00343EA0111CEF81810CEF82000002061
:1019600080BD00BF88680969DEF82020DEF82030DD
:1019700022F0A00223F01003CEF82030DEF8183059
:1019800042EA001023F4704343EA0131CEF8181004
:10199000CEF82000002080BDDEF82000DEF82020F8
:1019A00022F00102CEF82020DEF81820096922F08A
:1019B000F00242EA0111CEF81810CEF82000002003
:1019C00080BD0000FEE7000090B0FEF7A9FE0024F5
:1019D0000120CDE90B44CDE9094406904FF4803154
:1019E0000A90022506A8CDE90714CDE90D510F9400
:1019F000FFF744F820B1EFF3108072B6FEE700BFA6
:101A00000F20CDE90105802003904FF48060CDE9DF
:101A1000040401A80021FEF72BFF28B1EFF310808A
:101A200072B600BFFEE700BFFFF7B4FEFFF7CCFEC3
:101A3000FFF71AFF40F27804C2F200042046FFF7D5
:101A40002FFB40F2C00700200CA506AEC2F2000733
:101A50008DF8180020682946426A3046FEF7CEFB12
:101A60003046FEF74FFC82B2384631466423FFF71A
:101A7000C5FD4FF4FA70FEF723FDEBE7636F756E5B
:101A80007465723A25640000000000000000000048
:101A90000102030406070809000000000102030414
:101AA000010202030405060708090A0B0C0D0E0FBC
:101AB00010100000D81A00080000002018000000D4
:101AC00050010008F01A000818000020F806000075
:101AD000700100080000000001000000100000007C
:101AE00000127A00616761696E000000000000006A
:04000005080000ED02
:00000001FF
