:1003A200E4FDFCC3ED9FEC9E5015E4FBFA0BBB0091
:1003B200010AEB64704A70F50DBD00010C80E42265
:06046700C2B68F80D2B482
:09046D007F027EEFDEFEDFFC22BF
:0A048200C2B5120467C2B402046D93
:1003C200CFCDCFCECCCE1202077C007D0A1202071F
:0403D200ED2430FFE7
:0A03D600D2B5120467C2B402046D30
:10041600AE07BE0104ED148006BE0209ED243F447A
:0604260080FF1204822297
:100441007F381204827F0C1204827F061204827F9D
:04045100010204821E
:0A048C00AC03120416AF040203D6FD
:10037F008B228A238924120416E4FDAB22AA23A917
:10038F00248D827583001201C8FF60061203D60DFB
:03039F0080E922D0
:0C034C007F0AEA24FFFDE434FFFC7E0081
:100358008E0D8F0E8C0F8D107F017E00E4FBEBC39A
:100368009510E50F6480F8748098500AAC0DAD0EB6
:070378001201F50B80E822E1
:1003E0008A0A8B0B120416AA0CEAD39400400D1251
:0D03F000034CAC0AAD0B1203C21A80ED22C3
:10026A00120416C3EA64809480400B7F2B1203D6D3
:10027A008A168B17800E7F2D1203D6C3E49BF517BF
:10028A00E49AF516AA15EAD39400400D12034CAC71
:0A029A0016AD171203C21A80ED2200
:1002A4008A1A8B1B120416AA1CEAD3940040297FD5
:1002B4001012034EAC1AAD1BCFCDCFCECCCE120252
:1002C40007EF540FFEC3940AEE5004243080022436
:0902D40037FF1203D61A80D12273
:1002DD008A1F8B20120416AA21EAD394004028EA23
:1002ED0024FFFDE434FFFC7F027E00120358AC1F97
:1002FD00AD20CFCDCFCECCCE120207EF540124309E
:08030D00FF1203D61A80D22270
:1003FD00E4FEC2A1EF30E704D2A08002C2A0D2A1D8
:09040D00EF25E0FF0EBE08EA2213
:10042C00E4FEEF25E0FFD2A1C2A130A503430701F2
:05043C000EBE0CEE22D3
:10045500C2B71203FDC2A1000000000012042CD295
:02046500B722BC
:100315001204417FE41204558F25AC25E412011324
:100325007BE67A3F799C783F1200031201478F25BF
:10033500EFFB7A00750C057D017F011203E07F0557
:070345007E001203A280CC30
:10000300EC4D6011E8497017ED33EC3304600DE4F7
:10001300FCFFFEFD22E933E8330470F80201B3125A
:10002300017E58046009E4CC24815006285009025B
:1000330001BD2840030201BAC0E0EB4A7044B98015
:1000430006D0E0FB0201A9EF4E701CBD8008EBFF58
:10005300EAFEE9FD80EBE98DF0A4FEE5F00200EC99
:10006300E9CDF9EAFEEBFFEF89F0A4FCE5F0CE89D8
:10007300F0A42EFFE435F0CD89F0A42DFEE435F095
:100083008067EF4E7005BD80D780C3EF8BF0A4ACC3
:10009300F0EE8BF0A42CFCE435F0F8EF8AF0A42CFE
:1000A300E5F038FCE433CB8DF0A42CFCE5F03BF811
:1000B300EE8AF0A42CFCE5F038F8E433CF89F0A401
:1000C3002CFCE5F038CF3400CE89F0A42FFFE5F007
:1000D3003EFEE433C98DF0A42EFEE5F039CD8AF05F
:1000E300A42FFFE5F03EFEE43DFD33D0E0FB5007D7
:1000F3000BBB000F0201BDEC2CFCEF33FFEE33FE14
:06010300ED33FD02019541
:1001090075F020800E75F010800575F0087D007E71
:10011900007F003392D530D50312025CEC334010D6
:10012900EF33FFEE33FEED33FDEC33FCD5F0ED227A
:0E013900E5F0247EA2D513CC92E7CDCEFF22B6
:10014700EDD2E7CD33EC3392D524814006E4FFFEB0
:10015700FDFC22FCE4CFCECDCC24E0501174FF800F
:10016700EDC3CC13CCCD13CDCE13CECF13CF0470AC
:07017700F030D5DE02025C4E
:10017E00E9D2E7C933E833F892D5EDD2E7CD33ECC7
:07018E0033FC5002B2D52240
:10019500EC30E7100FBF000C0EBE00080DBD0004CB
:1001A5000BEB6014A2D5EB13FCED92E7FD2274FF77
:1001B500FCFDFEFF22E480F8A2D574FF13FC7D80D0
:0301C500E480EFE4
:0300000002047681
:0C047600787FE4F6D8FD7581250203159F
:1001C800BB010CE58229F582E5833AF583E02250EC
:1001D80006E92582F8E622BBFE06E92582F8E22236
:0D01E800E58229F582E5833AF583E4932250
:1001F500EF8DF0A4A8F0CF8CF0A428CE8DF0A42E1E
:02020500FE22D7
:10020700BC000BBE0029EF8DF084FFADF022E4CCDB
:10021700F875F008EF2FFFEE33FEEC33FCEE9DECA4
:10022700984005FCEE9DFE0FD5F0E9E4CEFD22EDEA
:10023700F8F5F0EE8420D21CFEADF075F008EF2F34
:10024700FFED33FD4007985006D5F0F222C398FD25
:050257000FD5F0EA22C2
:0E025C00C3E49FFFE49EFEE49DFDE49CFC22B3
:00000001FF
