:10023500E4FDFCC3ED9FEC9E5015E4FBFA0BBB00FF
:10024500010AEB64704A70F50DBD00010C80E422D3
:0B02E600D288C289D2A8D2AFD2B822C1
:060321001202BA0202E61E
:03000300020006F2
:10000600C0E0C0F0C083C082C0D075D000C000C0C0
:1000160001C002C003C004C005C006C007E50870E1
:100026000CFFFE1202F17F01120327804FE50864E0
:1000360001704C1203108E098F0AE4FFFE1202F1C2
:10004600D3E50A94D4E5099430400FE50A94A4E573
:1000560009943850057590008025D3E50A94FEE58D
:100066000994294017E50A94E6E509942D500D7583
:100076000D01E4FF1203277508008003750801D0FF
:1000860007D006D005D004D003D002D001D000D0CE
:0A009600D0D082D083D0F0D0E03249
:0602CB00C2B68F80D2B420
:0902D1007F027EEFDEFEDFFC225D
:0A02FC00C2B51202CBC2B40202D157
:10025500CFCDCFCECCCE1200DF7C007D0A1200DFE1
:04026500ED2430FF55
:0A026900D2B51202CBC2B40202D1DA
:10029000AE07BE0104ED148006BE0209ED243F4402
:0602A00080FF1202FC22A7
:1002A6007F381202FC7F0C1202FC7F061202FC7FD2
:0402B600010202FC43
:0A030600AC03120290AF040202697A
:100212008B2E8A2F8930120290E4FDAB2EAA2FA9D1
:10022200308D827583001200A0FF60061202690DF4
:0302320080E9223E
:0C01DF007F0AEA24FFFDE434FFFC7E00F0
:1001EB008E2A8F2B8C2C8D2D7F017E00E4FBEBC395
:1001FB00952DE52C6480F8748098500AAC2AAD2BB1
:07020B001200CD0B80E82278
:100273008A1D8B1E120290AA1FEAD39400400D120E
:0D02830001DFAC1DAD1E1202551A80ED22E8
:10013400120290C3EA64809480400B7F2B12026900
:100144008A198B1A800E7F2D120269C3E49BF51A5B
:10015400E49AF519AA18EAD39400400D1201DFAC11
:0A01640019AD1A1202551A80ED229F
:10016E008A228B23120290AA24EAD3940040297F7C
:10017E00101201E1AC22AD23CFCDCFCECCCE1200EA
:10018E00DFEF540FFEC3940AEE5004243080022495
:09019E0037FF1202691A80D12218
:1001A7008A278B28120290AA29EAD394004028EACA
:1001B70024FFFDE434FFFC7F027E001201EBAC2735
:1001C700AD28CFCDCFCECCCE1200DFEF54012430F7
:0801D700FF1202691A80D22216
:080319001202A612032180FE6E
:1002BA005389F0438901758A18758CFCC28DC28CEA
:0102CA002211
:0B02F100AD07AC068C8CAF058F8A2295
:09031000AF8CEFFEAD8AEDFF2277
:06032700EF24FF928C227E
:030000000202DA1F
:0C02DA00787FE4F6D8FD7581330203192B
:1000A000BB010CE58229F582E5833AF583E0225015
:1000B00006E92582F8E622BBFE06E92582F8E2225F
:0D00C000E58229F582E5833AF583E4932279
:1000CD00EF8DF0A4A8F0CF8CF0A428CE8DF0A42E47
:0200DD00FE2201
:1000DF00BC000BBE0029EF8DF084FFADF022E4CC05
:1000EF00F875F008EF2FFFEE33FEEC33FCEE9DECCE
:1000FF00984005FCEE9DFE0FD5F0E9E4CEFD22ED14
:10010F00F8F5F0EE8420D21CFEADF075F008EF2F5D
:10011F00FFED33FD4007985006D5F0F222C398FD4E
:05012F000FD5F0EA22EB
:00000001FF
